{
  "contractName": "DiscoveryAccount",
  "abi": [
    {
      "inputs": [
        {
          "internalType": "contract IEntryPoint",
          "name": "anEntryPoint",
          "type": "address"
        }
      ],
      "stateMutability": "nonpayable",
      "type": "constructor"
    },
    {
      "anonymous": false,
      "inputs": [
        {
          "indexed": false,
          "internalType": "address",
          "name": "previousAdmin",
          "type": "address"
        },
        {
          "indexed": false,
          "internalType": "address",
          "name": "newAdmin",
          "type": "address"
        }
      ],
      "name": "AdminChanged",
      "type": "event"
    },
    {
      "anonymous": false,
      "inputs": [
        {
          "indexed": true,
          "internalType": "address",
          "name": "beacon",
          "type": "address"
        }
      ],
      "name": "BeaconUpgraded",
      "type": "event"
    },
    {
      "anonymous": false,
      "inputs": [
        {
          "indexed": true,
          "internalType": "contract IEntryPoint",
          "name": "entryPoint",
          "type": "address"
        },
        {
          "indexed": true,
          "internalType": "address",
          "name": "owner",
          "type": "address"
        }
      ],
      "name": "DiscoveryAccountInitialized",
      "type": "event"
    },
    {
      "anonymous": false,
      "inputs": [
        {
          "indexed": false,
          "internalType": "uint8",
          "name": "version",
          "type": "uint8"
        }
      ],
      "name": "Initialized",
      "type": "event"
    },
    {
      "anonymous": false,
      "inputs": [
        {
          "indexed": true,
          "internalType": "address",
          "name": "implementation",
          "type": "address"
        }
      ],
      "name": "Upgraded",
      "type": "event"
    },
    {
      "inputs": [
        {
          "internalType": "address",
          "name": "",
          "type": "address"
        }
      ],
      "name": "allowedContracts",
      "outputs": [
        {
          "internalType": "bool",
          "name": "",
          "type": "bool"
        }
      ],
      "stateMutability": "view",
      "type": "function"
    },
    {
      "inputs": [
        {
          "internalType": "address",
          "name": "",
          "type": "address"
        }
      ],
      "name": "allowedReceivers",
      "outputs": [
        {
          "internalType": "bool",
          "name": "",
          "type": "bool"
        }
      ],
      "stateMutability": "view",
      "type": "function"
    },
    {
      "inputs": [
        {
          "internalType": "address",
          "name": "",
          "type": "address"
        },
        {
          "internalType": "string",
          "name": "",
          "type": "string"
        }
      ],
      "name": "disallowedFunctions",
      "outputs": [
        {
          "internalType": "bool",
          "name": "",
          "type": "bool"
        }
      ],
      "stateMutability": "view",
      "type": "function"
    },
    {
      "inputs": [],
      "name": "getNonce",
      "outputs": [
        {
          "internalType": "uint256",
          "name": "",
          "type": "uint256"
        }
      ],
      "stateMutability": "view",
      "type": "function"
    },
    {
      "inputs": [
        {
          "internalType": "address",
          "name": "",
          "type": "address"
        },
        {
          "internalType": "address",
          "name": "",
          "type": "address"
        },
        {
          "internalType": "uint256[]",
          "name": "",
          "type": "uint256[]"
        },
        {
          "internalType": "uint256[]",
          "name": "",
          "type": "uint256[]"
        },
        {
          "internalType": "bytes",
          "name": "",
          "type": "bytes"
        }
      ],
      "name": "onERC1155BatchReceived",
      "outputs": [
        {
          "internalType": "bytes4",
          "name": "",
          "type": "bytes4"
        }
      ],
      "stateMutability": "pure",
      "type": "function"
    },
    {
      "inputs": [
        {
          "internalType": "address",
          "name": "",
          "type": "address"
        },
        {
          "internalType": "address",
          "name": "",
          "type": "address"
        },
        {
          "internalType": "uint256",
          "name": "",
          "type": "uint256"
        },
        {
          "internalType": "uint256",
          "name": "",
          "type": "uint256"
        },
        {
          "internalType": "bytes",
          "name": "",
          "type": "bytes"
        }
      ],
      "name": "onERC1155Received",
      "outputs": [
        {
          "internalType": "bytes4",
          "name": "",
          "type": "bytes4"
        }
      ],
      "stateMutability": "pure",
      "type": "function"
    },
    {
      "inputs": [
        {
          "internalType": "address",
          "name": "",
          "type": "address"
        },
        {
          "internalType": "address",
          "name": "",
          "type": "address"
        },
        {
          "internalType": "uint256",
          "name": "",
          "type": "uint256"
        },
        {
          "internalType": "bytes",
          "name": "",
          "type": "bytes"
        }
      ],
      "name": "onERC721Received",
      "outputs": [
        {
          "internalType": "bytes4",
          "name": "",
          "type": "bytes4"
        }
      ],
      "stateMutability": "pure",
      "type": "function"
    },
    {
      "inputs": [],
      "name": "owner",
      "outputs": [
        {
          "internalType": "address",
          "name": "",
          "type": "address"
        }
      ],
      "stateMutability": "view",
      "type": "function"
    },
    {
      "inputs": [],
      "name": "proxiableUUID",
      "outputs": [
        {
          "internalType": "bytes32",
          "name": "",
          "type": "bytes32"
        }
      ],
      "stateMutability": "view",
      "type": "function"
    },
    {
      "inputs": [
        {
          "internalType": "bytes4",
          "name": "interfaceId",
          "type": "bytes4"
        }
      ],
      "name": "supportsInterface",
      "outputs": [
        {
          "internalType": "bool",
          "name": "",
          "type": "bool"
        }
      ],
      "stateMutability": "view",
      "type": "function"
    },
    {
      "inputs": [
        {
          "internalType": "address",
          "name": "",
          "type": "address"
        },
        {
          "internalType": "address",
          "name": "",
          "type": "address"
        },
        {
          "internalType": "address",
          "name": "",
          "type": "address"
        },
        {
          "internalType": "uint256",
          "name": "",
          "type": "uint256"
        },
        {
          "internalType": "bytes",
          "name": "",
          "type": "bytes"
        },
        {
          "internalType": "bytes",
          "name": "",
          "type": "bytes"
        }
      ],
      "name": "tokensReceived",
      "outputs": [],
      "stateMutability": "pure",
      "type": "function"
    },
    {
      "inputs": [
        {
          "internalType": "address",
          "name": "newImplementation",
          "type": "address"
        }
      ],
      "name": "upgradeTo",
      "outputs": [],
      "stateMutability": "nonpayable",
      "type": "function"
    },
    {
      "inputs": [
        {
          "internalType": "address",
          "name": "newImplementation",
          "type": "address"
        },
        {
          "internalType": "bytes",
          "name": "data",
          "type": "bytes"
        }
      ],
      "name": "upgradeToAndCall",
      "outputs": [],
      "stateMutability": "payable",
      "type": "function"
    },
    {
      "inputs": [
        {
          "components": [
            {
              "internalType": "address",
              "name": "sender",
              "type": "address"
            },
            {
              "internalType": "uint256",
              "name": "nonce",
              "type": "uint256"
            },
            {
              "internalType": "bytes",
              "name": "initCode",
              "type": "bytes"
            },
            {
              "internalType": "bytes",
              "name": "callData",
              "type": "bytes"
            },
            {
              "internalType": "uint256",
              "name": "callGasLimit",
              "type": "uint256"
            },
            {
              "internalType": "uint256",
              "name": "verificationGasLimit",
              "type": "uint256"
            },
            {
              "internalType": "uint256",
              "name": "preVerificationGas",
              "type": "uint256"
            },
            {
              "internalType": "uint256",
              "name": "maxFeePerGas",
              "type": "uint256"
            },
            {
              "internalType": "uint256",
              "name": "maxPriorityFeePerGas",
              "type": "uint256"
            },
            {
              "internalType": "bytes",
              "name": "paymasterAndData",
              "type": "bytes"
            },
            {
              "internalType": "bytes",
              "name": "signature",
              "type": "bytes"
            }
          ],
          "internalType": "struct UserOperation",
          "name": "userOp",
          "type": "tuple"
        },
        {
          "internalType": "bytes32",
          "name": "userOpHash",
          "type": "bytes32"
        },
        {
          "internalType": "uint256",
          "name": "missingAccountFunds",
          "type": "uint256"
        }
      ],
      "name": "validateUserOp",
      "outputs": [
        {
          "internalType": "uint256",
          "name": "validationData",
          "type": "uint256"
        }
      ],
      "stateMutability": "nonpayable",
      "type": "function"
    },
    {
      "stateMutability": "payable",
      "type": "receive"
    },
    {
      "inputs": [],
      "name": "entryPoint",
      "outputs": [
        {
          "internalType": "contract IEntryPoint",
          "name": "",
          "type": "address"
        }
      ],
      "stateMutability": "view",
      "type": "function"
    },
    {
      "inputs": [
        {
          "internalType": "address",
          "name": "dest",
          "type": "address"
        },
        {
          "internalType": "uint256",
          "name": "value",
          "type": "uint256"
        },
        {
          "internalType": "bytes",
          "name": "func",
          "type": "bytes"
        }
      ],
      "name": "execute",
      "outputs": [],
      "stateMutability": "nonpayable",
      "type": "function"
    },
    {
      "inputs": [
        {
          "internalType": "address",
          "name": "dest",
          "type": "address"
        },
        {
          "internalType": "uint256",
          "name": "value",
          "type": "uint256"
        },
        {
          "internalType": "bytes",
          "name": "func",
          "type": "bytes"
        }
      ],
      "name": "isOperationAllowed",
      "outputs": [
        {
          "internalType": "bool",
          "name": "",
          "type": "bool"
        }
      ],
      "stateMutability": "view",
      "type": "function"
    },
    {
      "inputs": [
        {
          "internalType": "address[]",
          "name": "dest",
          "type": "address[]"
        },
        {
          "internalType": "bytes[]",
          "name": "func",
          "type": "bytes[]"
        }
      ],
      "name": "executeBatch",
      "outputs": [],
      "stateMutability": "nonpayable",
      "type": "function"
    },
    {
      "inputs": [
        {
          "internalType": "address",
          "name": "anOwner",
          "type": "address"
        }
      ],
      "name": "initialize",
      "outputs": [],
      "stateMutability": "nonpayable",
      "type": "function"
    },
    {
      "inputs": [],
      "name": "getDeposit",
      "outputs": [
        {
          "internalType": "uint256",
          "name": "",
          "type": "uint256"
        }
      ],
      "stateMutability": "view",
      "type": "function"
    },
    {
      "inputs": [],
      "name": "addDeposit",
      "outputs": [],
      "stateMutability": "payable",
      "type": "function"
    },
    {
      "inputs": [
        {
          "internalType": "address payable",
          "name": "withdrawAddress",
          "type": "address"
        },
        {
          "internalType": "uint256",
          "name": "amount",
          "type": "uint256"
        }
      ],
      "name": "withdrawDepositTo",
      "outputs": [],
      "stateMutability": "nonpayable",
      "type": "function"
    },
    {
      "inputs": [
        {
          "internalType": "address",
          "name": "receiver",
          "type": "address"
        },
        {
          "internalType": "bool",
          "name": "allowed",
          "type": "bool"
        }
      ],
      "name": "setAllowedReceiver",
      "outputs": [],
      "stateMutability": "nonpayable",
      "type": "function"
    },
    {
      "inputs": [
        {
          "internalType": "address",
          "name": "contractAddress",
          "type": "address"
        },
        {
          "internalType": "bool",
          "name": "allowed",
          "type": "bool"
        }
      ],
      "name": "setAllowedContract",
      "outputs": [],
      "stateMutability": "nonpayable",
      "type": "function"
    },
    {
      "inputs": [
        {
          "internalType": "address",
          "name": "contractAddress",
          "type": "address"
        },
        {
          "internalType": "string",
          "name": "functionSignature",
          "type": "string"
        },
        {
          "internalType": "bool",
          "name": "disallowed",
          "type": "bool"
        }
      ],
      "name": "setDisallowedFunction",
      "outputs": [],
      "stateMutability": "nonpayable",
      "type": "function"
    },
    {
      "inputs": [
        {
          "internalType": "bytes",
          "name": "callData",
          "type": "bytes"
        }
      ],
      "name": "processCallData",
      "outputs": [
        {
          "internalType": "string",
          "name": "",
          "type": "string"
        }
      ],
      "stateMutability": "pure",
      "type": "function"
    }
  ],
  "bytecode": "0x60c06040523073ffffffffffffffffffffffffffffffffffffffff1660809073ffffffffffffffffffffffffffffffffffffffff168152503480156200004457600080fd5b50604051620041d5380380620041d583398181016040528101906200006a9190620001f9565b8073ffffffffffffffffffffffffffffffffffffffff1660a08173ffffffffffffffffffffffffffffffffffffffff1681525050620000ae620000b560201b60201c565b506200030f565b600060019054906101000a900460ff161562000108576040517f08c379a0000000000000000000000000000000000000000000000000000000008152600401620000ff90620002b2565b60405180910390fd5b60ff801660008054906101000a900460ff1660ff1614620001795760ff6000806101000a81548160ff021916908360ff1602179055507f7f26b83ff96e1f2b6a682f133852f6798a09c465da95921460cefb384740249860ff604051620001709190620002f2565b60405180910390a15b565b600080fd5b600073ffffffffffffffffffffffffffffffffffffffff82169050919050565b6000620001ad8262000180565b9050919050565b6000620001c182620001a0565b9050919050565b620001d381620001b4565b8114620001df57600080fd5b50565b600081519050620001f381620001c8565b92915050565b6000602082840312156200021257620002116200017b565b5b60006200022284828501620001e2565b91505092915050565b600082825260208201905092915050565b7f496e697469616c697a61626c653a20636f6e747261637420697320696e69746960008201527f616c697a696e6700000000000000000000000000000000000000000000000000602082015250565b60006200029a6027836200022b565b9150620002a7826200023c565b604082019050919050565b60006020820190508181036000830152620002cd816200028b565b9050919050565b600060ff82169050919050565b620002ec81620002d4565b82525050565b6000602082019050620003096000830184620002e1565b92915050565b60805160a051613e7d620003586000396000818161114d0152611c5d015260008181610b5101528181610be001528181610e2201528181610eb10152610f810152613e7d6000f3fe6080604052600436106101845760003560e01c806352d1902d116100d1578063b61d27f61161008a578063c4d66de811610064578063c4d66de8146105a6578063d087d288146105cf578063edb88ae9146105fa578063f23a6e61146106235761018b565b8063b61d27f614610515578063bc197c811461053e578063c399ec881461057b5761018b565b806352d1902d146103f157806355de1faf1461041c5780638da5cb5b14610445578063a82252d714610470578063a9db92ec146104ad578063b0d691fe146104ea5761018b565b80633659cfe61161013e5780634a58db19116101185780634a58db19146103655780634d44560d1461036f5780634f1ef2861461039857806351e0e26b146103b45761018b565b80633659cfe6146102c25780633a871cdd146102eb5780633cf20025146103285761018b565b806223de291461019057806301ffc9a7146101b957806302c3bd4c146101f6578063111e8cf614610233578063150b7a021461025c57806318dfb3c7146102995761018b565b3661018b57005b600080fd5b34801561019c57600080fd5b506101b760048036038101906101b2919061238f565b610660565b005b3480156101c557600080fd5b506101e060048036038101906101db91906124b6565b61066a565b6040516101ed91906124fe565b60405180910390f35b34801561020257600080fd5b5061021d60048036038101906102189190612519565b6107a4565b60405161022a91906124fe565b60405180910390f35b34801561023f57600080fd5b5061025a600480360381019061025591906126fa565b610950565b005b34801561026857600080fd5b50610283600480360381019061027e9190612769565b6109d0565b6040516102909190612800565b60405180910390f35b3480156102a557600080fd5b506102c060048036038101906102bb91906128c7565b6109e5565b005b3480156102ce57600080fd5b506102e960048036038101906102e49190612948565b610b4f565b005b3480156102f757600080fd5b50610312600480360381019061030d91906129d0565b610cd8565b60405161031f9190612a4e565b60405180910390f35b34801561033457600080fd5b5061034f600480360381019061034a9190612948565b610d0b565b60405161035c91906124fe565b60405180910390f35b61036d610d2b565b005b34801561037b57600080fd5b5061039660048036038101906103919190612aa7565b610da0565b005b6103b260048036038101906103ad9190612b88565b610e20565b005b3480156103c057600080fd5b506103db60048036038101906103d69190612948565b610f5d565b6040516103e891906124fe565b60405180910390f35b3480156103fd57600080fd5b50610406610f7d565b6040516104139190612bf3565b60405180910390f35b34801561042857600080fd5b50610443600480360381019061043e9190612c0e565b611036565b005b34801561045157600080fd5b5061045a611099565b6040516104679190612c5d565b60405180910390f35b34801561047c57600080fd5b5061049760048036038101906104929190612c78565b6110bf565b6040516104a49190612d49565b60405180910390f35b3480156104b957600080fd5b506104d460048036038101906104cf9190612d6b565b611104565b6040516104e191906124fe565b60405180910390f35b3480156104f657600080fd5b506104ff611149565b60405161050c9190612e26565b60405180910390f35b34801561052157600080fd5b5061053c60048036038101906105379190612519565b611171565b005b34801561054a57600080fd5b5061056560048036038101906105609190612e97565b611219565b6040516105729190612800565b60405180910390f35b34801561058757600080fd5b50610590611231565b60405161059d9190612a4e565b60405180910390f35b3480156105b257600080fd5b506105cd60048036038101906105c89190612948565b6112b9565b005b3480156105db57600080fd5b506105e46113f9565b6040516105f19190612a4e565b60405180910390f35b34801561060657600080fd5b50610621600480360381019061061c9190612c0e565b611484565b005b34801561062f57600080fd5b5061064a60048036038101906106459190612f73565b6114e7565b6040516106579190612800565b60405180910390f35b5050505050505050565b60007f150b7a02000000000000000000000000000000000000000000000000000000007bffffffffffffffffffffffffffffffffffffffffffffffffffffffff1916827bffffffffffffffffffffffffffffffffffffffffffffffffffffffff1916148061073557507f4e2312e0000000000000000000000000000000000000000000000000000000007bffffffffffffffffffffffffffffffffffffffffffffffffffffffff1916827bffffffffffffffffffffffffffffffffffffffffffffffffffffffff1916145b8061079d57507f01ffc9a7000000000000000000000000000000000000000000000000000000007bffffffffffffffffffffffffffffffffffffffffffffffffffffffff1916827bffffffffffffffffffffffffffffffffffffffffffffffffffffffff1916145b9050919050565b6000600160008673ffffffffffffffffffffffffffffffffffffffff1673ffffffffffffffffffffffffffffffffffffffff16815260200190815260200160002060009054906101000a900460ff16806108475750600260008673ffffffffffffffffffffffffffffffffffffffff1673ffffffffffffffffffffffffffffffffffffffff16815260200190815260200160002060009054906101000a900460ff165b80156109055750600360008673ffffffffffffffffffffffffffffffffffffffff1673ffffffffffffffffffffffffffffffffffffffff1681526020019081526020016000206108da84848080601f016020809104026020016040519081016040528093929190818152602001838380828437600081840152601f19601f820116905080830192505050505050506110bf565b6040516108e79190613049565b908152602001604051809103902060009054906101000a900460ff16155b610944576040517f08c379a000000000000000000000000000000000000000000000000000000000815260040161093b906130ac565b60405180910390fd5b60019050949350505050565b6109586114fd565b80600360008573ffffffffffffffffffffffffffffffffffffffff1673ffffffffffffffffffffffffffffffffffffffff168152602001908152602001600020836040516109a69190613049565b908152602001604051809103902060006101000a81548160ff021916908315150217905550505050565b600063150b7a0260e01b905095945050505050565b6109ed6115c5565b818190508484905014610a35576040517f08c379a0000000000000000000000000000000000000000000000000000000008152600401610a2c90613118565b60405180910390fd5b60005b84849050811015610b4857610a9a858583818110610a5957610a58613138565b5b9050602002016020810190610a6e9190612948565b6000858585818110610a8357610a82613138565b5b9050602002810190610a959190613176565b6107a4565b50610b35858583818110610ab157610ab0613138565b5b9050602002016020810190610ac69190612948565b6000858585818110610adb57610ada613138565b5b9050602002810190610aed9190613176565b8080601f016020809104026020016040519081016040528093929190818152602001838380828437600081840152601f19601f82011690508083019250505050505050611694565b8080610b4090613208565b915050610a38565b5050505050565b7f000000000000000000000000000000000000000000000000000000000000000073ffffffffffffffffffffffffffffffffffffffff163073ffffffffffffffffffffffffffffffffffffffff161415610bde576040517f08c379a0000000000000000000000000000000000000000000000000000000008152600401610bd5906132c3565b60405180910390fd5b7f000000000000000000000000000000000000000000000000000000000000000073ffffffffffffffffffffffffffffffffffffffff16610c1d611718565b73ffffffffffffffffffffffffffffffffffffffff1614610c73576040517f08c379a0000000000000000000000000000000000000000000000000000000008152600401610c6a90613355565b60405180910390fd5b610c7c8161176f565b610cd581600067ffffffffffffffff811115610c9b57610c9a6125a3565b5b6040519080825280601f01601f191660200182016040528015610ccd5781602001600182028036833780820191505090505b50600061177a565b50565b6000610ce26118e8565b610cec848461195f565b9050610cfb8460200135611a3d565b610d0482611a40565b9392505050565b60016020528060005260406000206000915054906101000a900460ff1681565b610d33611149565b73ffffffffffffffffffffffffffffffffffffffff1663b760faf934306040518363ffffffff1660e01b8152600401610d6c9190612c5d565b6000604051808303818588803b158015610d8557600080fd5b505af1158015610d99573d6000803e3d6000fd5b5050505050565b610da86114fd565b610db0611149565b73ffffffffffffffffffffffffffffffffffffffff1663205c287883836040518363ffffffff1660e01b8152600401610dea929190613384565b600060405180830381600087803b158015610e0457600080fd5b505af1158015610e18573d6000803e3d6000fd5b505050505050565b7f000000000000000000000000000000000000000000000000000000000000000073ffffffffffffffffffffffffffffffffffffffff163073ffffffffffffffffffffffffffffffffffffffff161415610eaf576040517f08c379a0000000000000000000000000000000000000000000000000000000008152600401610ea6906132c3565b60405180910390fd5b7f000000000000000000000000000000000000000000000000000000000000000073ffffffffffffffffffffffffffffffffffffffff16610eee611718565b73ffffffffffffffffffffffffffffffffffffffff1614610f44576040517f08c379a0000000000000000000000000000000000000000000000000000000008152600401610f3b90613355565b60405180910390fd5b610f4d8261176f565b610f598282600161177a565b5050565b60026020528060005260406000206000915054906101000a900460ff1681565b60007f000000000000000000000000000000000000000000000000000000000000000073ffffffffffffffffffffffffffffffffffffffff163073ffffffffffffffffffffffffffffffffffffffff161461100d576040517f08c379a00000000000000000000000000000000000000000000000000000000081526004016110049061341f565b60405180910390fd5b7f360894a13ba1a3210667c828492db98dca3e2076cc3735a920a3ca505d382bbc60001b905090565b61103e6114fd565b80600260008473ffffffffffffffffffffffffffffffffffffffff1673ffffffffffffffffffffffffffffffffffffffff16815260200190815260200160002060006101000a81548160ff0219169083151502179055505050565b600460009054906101000a900473ffffffffffffffffffffffffffffffffffffffff1681565b60606000828060200190518101906110d791906134c4565b50905060006110e582611adc565b8060200190518101906110f89190613590565b90508092505050919050565b6003602052816000526040600020818051602081018201805184825260208301602085012081835280955050505050506000915091509054906101000a900460ff1681565b60007f0000000000000000000000000000000000000000000000000000000000000000905090565b6111796115c5565b611185848484846107a4565b6111c4576040517f08c379a00000000000000000000000000000000000000000000000000000000081526004016111bb906130ac565b60405180910390fd5b611213848484848080601f016020809104026020016040519081016040528093929190818152602001838380828437600081840152601f19601f82011690508083019250505050505050611694565b50505050565b600063bc197c8160e01b905098975050505050505050565b600061123b611149565b73ffffffffffffffffffffffffffffffffffffffff166370a08231306040518263ffffffff1660e01b81526004016112739190612c5d565b602060405180830381865afa158015611290573d6000803e3d6000fd5b505050506040513d601f19601f820116820180604052508101906112b491906135ee565b905090565b60008060019054906101000a900460ff161590508080156112ea5750600160008054906101000a900460ff1660ff16105b8061131757506112f930611bbe565b1580156113165750600160008054906101000a900460ff1660ff16145b5b611356576040517f08c379a000000000000000000000000000000000000000000000000000000000815260040161134d9061368d565b60405180910390fd5b60016000806101000a81548160ff021916908360ff1602179055508015611393576001600060016101000a81548160ff0219169083151502179055505b61139c82611be1565b80156113f55760008060016101000a81548160ff0219169083151502179055507f7f26b83ff96e1f2b6a682f133852f6798a09c465da95921460cefb384740249860016040516113ec91906136f5565b60405180910390a15b5050565b6000611403611149565b73ffffffffffffffffffffffffffffffffffffffff166335567e1a3060006040518363ffffffff1660e01b815260040161143e92919061376f565b602060405180830381865afa15801561145b573d6000803e3d6000fd5b505050506040513d601f19601f8201168201806040525081019061147f91906135ee565b905090565b61148c6114fd565b80600160008473ffffffffffffffffffffffffffffffffffffffff1673ffffffffffffffffffffffffffffffffffffffff16815260200190815260200160002060006101000a81548160ff0219169083151502179055505050565b600063f23a6e6160e01b90509695505050505050565b600460009054906101000a900473ffffffffffffffffffffffffffffffffffffffff1673ffffffffffffffffffffffffffffffffffffffff163373ffffffffffffffffffffffffffffffffffffffff16148061158457503073ffffffffffffffffffffffffffffffffffffffff163373ffffffffffffffffffffffffffffffffffffffff16145b6115c3576040517f08c379a00000000000000000000000000000000000000000000000000000000081526004016115ba906137e4565b60405180910390fd5b565b6115cd611149565b73ffffffffffffffffffffffffffffffffffffffff163373ffffffffffffffffffffffffffffffffffffffff1614806116535750600460009054906101000a900473ffffffffffffffffffffffffffffffffffffffff1673ffffffffffffffffffffffffffffffffffffffff163373ffffffffffffffffffffffffffffffffffffffff16145b611692576040517f08c379a000000000000000000000000000000000000000000000000000000000815260040161168990613850565b60405180910390fd5b565b6000808473ffffffffffffffffffffffffffffffffffffffff1684846040516116bd91906138b7565b60006040518083038185875af1925050503d80600081146116fa576040519150601f19603f3d011682016040523d82523d6000602084013e6116ff565b606091505b50915091508161171157805160208201fd5b5050505050565b60006117467f360894a13ba1a3210667c828492db98dca3e2076cc3735a920a3ca505d382bbc60001b611cc1565b60000160009054906101000a900473ffffffffffffffffffffffffffffffffffffffff16905090565b6117776114fd565b50565b6117a67f4910fdfa16fed3260ed0e7147f7cc6da11a60208b5b9406d12a635614ffd914360001b611ccb565b60000160009054906101000a900460ff16156117ca576117c583611cd5565b6118e3565b8273ffffffffffffffffffffffffffffffffffffffff166352d1902d6040518163ffffffff1660e01b8152600401602060405180830381865afa92505050801561183257506040513d601f19601f8201168201806040525081019061182f91906138e3565b60015b611871576040517f08c379a000000000000000000000000000000000000000000000000000000000815260040161186890613982565b60405180910390fd5b7f360894a13ba1a3210667c828492db98dca3e2076cc3735a920a3ca505d382bbc60001b81146118d6576040517f08c379a00000000000000000000000000000000000000000000000000000000081526004016118cd90613a14565b60405180910390fd5b506118e2838383611d8e565b5b505050565b6118f0611149565b73ffffffffffffffffffffffffffffffffffffffff163373ffffffffffffffffffffffffffffffffffffffff161461195d576040517f08c379a000000000000000000000000000000000000000000000000000000000815260040161195490613a80565b60405180910390fd5b565b60008061196b83611dba565b90506119d3848061014001906119819190613176565b8080601f016020809104026020016040519081016040528093929190818152602001838380828437600081840152601f19601f8201169050808301925050505050505082611df090919063ffffffff16565b73ffffffffffffffffffffffffffffffffffffffff16600460009054906101000a900473ffffffffffffffffffffffffffffffffffffffff1673ffffffffffffffffffffffffffffffffffffffff1614611a31576001915050611a37565b60009150505b92915050565b50565b60008114611ad95760003373ffffffffffffffffffffffffffffffffffffffff16827fffffffffffffffffffffffffffffffffffffffffffffffffffffffffffffffff90604051611a9090613ac6565b600060405180830381858888f193505050503d8060008114611ace576040519150601f19603f3d011682016040523d82523d6000602084013e611ad3565b606091505b50509050505b50565b60606000602067ffffffffffffffff811115611afb57611afa6125a3565b5b6040519080825280601f01601f191660200182016040528015611b2d5781602001600182028036833780820191505090505b50905060005b6004811015611bb4576000600882611b4b9190613adb565b63ff00000063ffffffff16901c60e01b905080838381518110611b7157611b70613138565b5b60200101907effffffffffffffffffffffffffffffffffffffffffffffffffffffffffffff1916908160001a905350508080611bac90613208565b915050611b33565b5080915050919050565b6000808273ffffffffffffffffffffffffffffffffffffffff163b119050919050565b80600460006101000a81548173ffffffffffffffffffffffffffffffffffffffff021916908373ffffffffffffffffffffffffffffffffffffffff160217905550600460009054906101000a900473ffffffffffffffffffffffffffffffffffffffff1673ffffffffffffffffffffffffffffffffffffffff167f000000000000000000000000000000000000000000000000000000000000000073ffffffffffffffffffffffffffffffffffffffff167f9fdb50f0f5a9669bd96a50bfbddcd23cede9345229d3523da3e75bc76be1ac9460405160405180910390a350565b6000819050919050565b6000819050919050565b611cde81611bbe565b611d1d576040517f08c379a0000000000000000000000000000000000000000000000000000000008152600401611d1490613ba7565b60405180910390fd5b80611d4a7f360894a13ba1a3210667c828492db98dca3e2076cc3735a920a3ca505d382bbc60001b611cc1565b60000160006101000a81548173ffffffffffffffffffffffffffffffffffffffff021916908373ffffffffffffffffffffffffffffffffffffffff16021790555050565b611d9783611e17565b600082511180611da45750805b15611db557611db38383611e66565b505b505050565b60007f19457468657265756d205369676e6564204d6573736167653a0a33320000000060005281601c52603c6000209050919050565b6000806000611dff8585611e93565b91509150611e0c81611ee5565b819250505092915050565b611e2081611cd5565b8073ffffffffffffffffffffffffffffffffffffffff167fbc7cd75a20ee27fd9adebab32041f755214dbc6bffa90cc0225b39da2e5c2d3b60405160405180910390a250565b6060611e8b8383604051806060016040528060278152602001613e2160279139612053565b905092915050565b600080604183511415611ed55760008060006020860151925060408601519150606086015160001a9050611ec9878285856120d9565b94509450505050611ede565b60006002915091505b9250929050565b60006004811115611ef957611ef8613bc7565b5b816004811115611f0c57611f0b613bc7565b5b1415611f1757612050565b60016004811115611f2b57611f2a613bc7565b5b816004811115611f3e57611f3d613bc7565b5b1415611f7f576040517f08c379a0000000000000000000000000000000000000000000000000000000008152600401611f7690613c42565b60405180910390fd5b60026004811115611f9357611f92613bc7565b5b816004811115611fa657611fa5613bc7565b5b1415611fe7576040517f08c379a0000000000000000000000000000000000000000000000000000000008152600401611fde90613cae565b60405180910390fd5b60036004811115611ffb57611ffa613bc7565b5b81600481111561200e5761200d613bc7565b5b141561204f576040517f08c379a000000000000000000000000000000000000000000000000000000000815260040161204690613d40565b60405180910390fd5b5b50565b60606000808573ffffffffffffffffffffffffffffffffffffffff168560405161207d91906138b7565b600060405180830381855af49150503d80600081146120b8576040519150601f19603f3d011682016040523d82523d6000602084013e6120bd565b606091505b50915091506120ce868383876121bc565b925050509392505050565b6000807f7fffffffffffffffffffffffffffffff5d576e7357a4501ddfe92f46681b20a08360001c11156121145760006003915091506121b3565b6000600187878787604051600081526020016040526040516121399493929190613d6f565b6020604051602081039080840390855afa15801561215b573d6000803e3d6000fd5b505050602060405103519050600073ffffffffffffffffffffffffffffffffffffffff168173ffffffffffffffffffffffffffffffffffffffff1614156121aa576000600192509250506121b3565b80600092509250505b94509492505050565b6060831561221f57600083511415612217576121d785611bbe565b612216576040517f08c379a000000000000000000000000000000000000000000000000000000000815260040161220d90613e00565b60405180910390fd5b5b82905061222a565b6122298383612232565b5b949350505050565b6000825111156122455781518083602001fd5b806040517f08c379a00000000000000000000000000000000000000000000000000000000081526004016122799190612d49565b60405180910390fd5b6000604051905090565b600080fd5b600080fd5b600073ffffffffffffffffffffffffffffffffffffffff82169050919050565b60006122c182612296565b9050919050565b6122d1816122b6565b81146122dc57600080fd5b50565b6000813590506122ee816122c8565b92915050565b6000819050919050565b612307816122f4565b811461231257600080fd5b50565b600081359050612324816122fe565b92915050565b600080fd5b600080fd5b600080fd5b60008083601f84011261234f5761234e61232a565b5b8235905067ffffffffffffffff81111561236c5761236b61232f565b5b60208301915083600182028301111561238857612387612334565b5b9250929050565b60008060008060008060008060c0898b0312156123af576123ae61228c565b5b60006123bd8b828c016122df565b98505060206123ce8b828c016122df565b97505060406123df8b828c016122df565b96505060606123f08b828c01612315565b955050608089013567ffffffffffffffff81111561241157612410612291565b5b61241d8b828c01612339565b945094505060a089013567ffffffffffffffff8111156124405761243f612291565b5b61244c8b828c01612339565b92509250509295985092959890939650565b60007fffffffff0000000000000000000000000000000000000000000000000000000082169050919050565b6124938161245e565b811461249e57600080fd5b50565b6000813590506124b08161248a565b92915050565b6000602082840312156124cc576124cb61228c565b5b60006124da848285016124a1565b91505092915050565b60008115159050919050565b6124f8816124e3565b82525050565b600060208201905061251360008301846124ef565b92915050565b600080600080606085870312156125335761253261228c565b5b6000612541878288016122df565b945050602061255287828801612315565b935050604085013567ffffffffffffffff81111561257357612572612291565b5b61257f87828801612339565b925092505092959194509250565b600080fd5b6000601f19601f8301169050919050565b7f4e487b7100000000000000000000000000000000000000000000000000000000600052604160045260246000fd5b6125db82612592565b810181811067ffffffffffffffff821117156125fa576125f96125a3565b5b80604052505050565b600061260d612282565b905061261982826125d2565b919050565b600067ffffffffffffffff821115612639576126386125a3565b5b61264282612592565b9050602081019050919050565b82818337600083830152505050565b600061267161266c8461261e565b612603565b90508281526020810184848401111561268d5761268c61258d565b5b61269884828561264f565b509392505050565b600082601f8301126126b5576126b461232a565b5b81356126c584826020860161265e565b91505092915050565b6126d7816124e3565b81146126e257600080fd5b50565b6000813590506126f4816126ce565b92915050565b6000806000606084860312156127135761271261228c565b5b6000612721868287016122df565b935050602084013567ffffffffffffffff81111561274257612741612291565b5b61274e868287016126a0565b925050604061275f868287016126e5565b9150509250925092565b6000806000806000608086880312156127855761278461228c565b5b6000612793888289016122df565b95505060206127a4888289016122df565b94505060406127b588828901612315565b935050606086013567ffffffffffffffff8111156127d6576127d5612291565b5b6127e288828901612339565b92509250509295509295909350565b6127fa8161245e565b82525050565b600060208201905061281560008301846127f1565b92915050565b60008083601f8401126128315761283061232a565b5b8235905067ffffffffffffffff81111561284e5761284d61232f565b5b60208301915083602082028301111561286a57612869612334565b5b9250929050565b60008083601f8401126128875761288661232a565b5b8235905067ffffffffffffffff8111156128a4576128a361232f565b5b6020830191508360208202830111156128c0576128bf612334565b5b9250929050565b600080600080604085870312156128e1576128e061228c565b5b600085013567ffffffffffffffff8111156128ff576128fe612291565b5b61290b8782880161281b565b9450945050602085013567ffffffffffffffff81111561292e5761292d612291565b5b61293a87828801612871565b925092505092959194509250565b60006020828403121561295e5761295d61228c565b5b600061296c848285016122df565b91505092915050565b600080fd5b6000610160828403121561299157612990612975565b5b81905092915050565b6000819050919050565b6129ad8161299a565b81146129b857600080fd5b50565b6000813590506129ca816129a4565b92915050565b6000806000606084860312156129e9576129e861228c565b5b600084013567ffffffffffffffff811115612a0757612a06612291565b5b612a138682870161297a565b9350506020612a24868287016129bb565b9250506040612a3586828701612315565b9150509250925092565b612a48816122f4565b82525050565b6000602082019050612a636000830184612a3f565b92915050565b6000612a7482612296565b9050919050565b612a8481612a69565b8114612a8f57600080fd5b50565b600081359050612aa181612a7b565b92915050565b60008060408385031215612abe57612abd61228c565b5b6000612acc85828601612a92565b9250506020612add85828601612315565b9150509250929050565b600067ffffffffffffffff821115612b0257612b016125a3565b5b612b0b82612592565b9050602081019050919050565b6000612b2b612b2684612ae7565b612603565b905082815260208101848484011115612b4757612b4661258d565b5b612b5284828561264f565b509392505050565b600082601f830112612b6f57612b6e61232a565b5b8135612b7f848260208601612b18565b91505092915050565b60008060408385031215612b9f57612b9e61228c565b5b6000612bad858286016122df565b925050602083013567ffffffffffffffff811115612bce57612bcd612291565b5b612bda85828601612b5a565b9150509250929050565b612bed8161299a565b82525050565b6000602082019050612c086000830184612be4565b92915050565b60008060408385031215612c2557612c2461228c565b5b6000612c33858286016122df565b9250506020612c44858286016126e5565b9150509250929050565b612c57816122b6565b82525050565b6000602082019050612c726000830184612c4e565b92915050565b600060208284031215612c8e57612c8d61228c565b5b600082013567ffffffffffffffff811115612cac57612cab612291565b5b612cb884828501612b5a565b91505092915050565b600081519050919050565b600082825260208201905092915050565b60005b83811015612cfb578082015181840152602081019050612ce0565b83811115612d0a576000848401525b50505050565b6000612d1b82612cc1565b612d258185612ccc565b9350612d35818560208601612cdd565b612d3e81612592565b840191505092915050565b60006020820190508181036000830152612d638184612d10565b905092915050565b60008060408385031215612d8257612d8161228c565b5b6000612d90858286016122df565b925050602083013567ffffffffffffffff811115612db157612db0612291565b5b612dbd858286016126a0565b9150509250929050565b6000819050919050565b6000612dec612de7612de284612296565b612dc7565b612296565b9050919050565b6000612dfe82612dd1565b9050919050565b6000612e1082612df3565b9050919050565b612e2081612e05565b82525050565b6000602082019050612e3b6000830184612e17565b92915050565b60008083601f840112612e5757612e5661232a565b5b8235905067ffffffffffffffff811115612e7457612e7361232f565b5b602083019150836020820283011115612e9057612e8f612334565b5b9250929050565b60008060008060008060008060a0898b031215612eb757612eb661228c565b5b6000612ec58b828c016122df565b9850506020612ed68b828c016122df565b975050604089013567ffffffffffffffff811115612ef757612ef6612291565b5b612f038b828c01612e41565b9650965050606089013567ffffffffffffffff811115612f2657612f25612291565b5b612f328b828c01612e41565b9450945050608089013567ffffffffffffffff811115612f5557612f54612291565b5b612f618b828c01612339565b92509250509295985092959890939650565b60008060008060008060a08789031215612f9057612f8f61228c565b5b6000612f9e89828a016122df565b9650506020612faf89828a016122df565b9550506040612fc089828a01612315565b9450506060612fd189828a01612315565b935050608087013567ffffffffffffffff811115612ff257612ff1612291565b5b612ffe89828a01612339565b92509250509295509295509295565b600081905092915050565b600061302382612cc1565b61302d818561300d565b935061303d818560208601612cdd565b80840191505092915050565b60006130558284613018565b915081905092915050565b7f6f7065726174696f6e206e6f7420616c6c6f7765640000000000000000000000600082015250565b6000613096601583612ccc565b91506130a182613060565b602082019050919050565b600060208201905081810360008301526130c581613089565b9050919050565b7f77726f6e67206172726179206c656e6774687300000000000000000000000000600082015250565b6000613102601383612ccc565b915061310d826130cc565b602082019050919050565b60006020820190508181036000830152613131816130f5565b9050919050565b7f4e487b7100000000000000000000000000000000000000000000000000000000600052603260045260246000fd5b600080fd5b600080fd5b600080fd5b6000808335600160200384360303811261319357613192613167565b5b80840192508235915067ffffffffffffffff8211156131b5576131b461316c565b5b6020830192506001820236038313156131d1576131d0613171565b5b509250929050565b7f4e487b7100000000000000000000000000000000000000000000000000000000600052601160045260246000fd5b6000613213826122f4565b91507fffffffffffffffffffffffffffffffffffffffffffffffffffffffffffffffff821415613246576132456131d9565b5b600182019050919050565b7f46756e6374696f6e206d7573742062652063616c6c6564207468726f7567682060008201527f64656c656761746563616c6c0000000000000000000000000000000000000000602082015250565b60006132ad602c83612ccc565b91506132b882613251565b604082019050919050565b600060208201905081810360008301526132dc816132a0565b9050919050565b7f46756e6374696f6e206d7573742062652063616c6c6564207468726f7567682060008201527f6163746976652070726f78790000000000000000000000000000000000000000602082015250565b600061333f602c83612ccc565b915061334a826132e3565b604082019050919050565b6000602082019050818103600083015261336e81613332565b9050919050565b61337e81612a69565b82525050565b60006040820190506133996000830185613375565b6133a66020830184612a3f565b9392505050565b7f555550535570677261646561626c653a206d757374206e6f742062652063616c60008201527f6c6564207468726f7567682064656c656761746563616c6c0000000000000000602082015250565b6000613409603883612ccc565b9150613414826133ad565b604082019050919050565b60006020820190508181036000830152613438816133fc565b9050919050565b60008151905061344e8161248a565b92915050565b600061346761346284612ae7565b612603565b9050828152602081018484840111156134835761348261258d565b5b61348e848285612cdd565b509392505050565b600082601f8301126134ab576134aa61232a565b5b81516134bb848260208601613454565b91505092915050565b600080604083850312156134db576134da61228c565b5b60006134e98582860161343f565b925050602083015167ffffffffffffffff81111561350a57613509612291565b5b61351685828601613496565b9150509250929050565b600061353361352e8461261e565b612603565b90508281526020810184848401111561354f5761354e61258d565b5b61355a848285612cdd565b509392505050565b600082601f8301126135775761357661232a565b5b8151613587848260208601613520565b91505092915050565b6000602082840312156135a6576135a561228c565b5b600082015167ffffffffffffffff8111156135c4576135c3612291565b5b6135d084828501613562565b91505092915050565b6000815190506135e8816122fe565b92915050565b6000602082840312156136045761360361228c565b5b6000613612848285016135d9565b91505092915050565b7f496e697469616c697a61626c653a20636f6e747261637420697320616c72656160008201527f647920696e697469616c697a6564000000000000000000000000000000000000602082015250565b6000613677602e83612ccc565b91506136828261361b565b604082019050919050565b600060208201905081810360008301526136a68161366a565b9050919050565b6000819050919050565b600060ff82169050919050565b60006136df6136da6136d5846136ad565b612dc7565b6136b7565b9050919050565b6136ef816136c4565b82525050565b600060208201905061370a60008301846136e6565b92915050565b6000819050919050565b600077ffffffffffffffffffffffffffffffffffffffffffffffff82169050919050565b600061375961375461374f84613710565b612dc7565b61371a565b9050919050565b6137698161373e565b82525050565b60006040820190506137846000830185612c4e565b6137916020830184613760565b9392505050565b7f6f6e6c79206f776e657200000000000000000000000000000000000000000000600082015250565b60006137ce600a83612ccc565b91506137d982613798565b602082019050919050565b600060208201905081810360008301526137fd816137c1565b9050919050565b7f6163636f756e743a206e6f74204f776e6572206f7220456e747279506f696e74600082015250565b600061383a602083612ccc565b915061384582613804565b602082019050919050565b600060208201905081810360008301526138698161382d565b9050919050565b600081519050919050565b600081905092915050565b600061389182613870565b61389b818561387b565b93506138ab818560208601612cdd565b80840191505092915050565b60006138c38284613886565b915081905092915050565b6000815190506138dd816129a4565b92915050565b6000602082840312156138f9576138f861228c565b5b6000613907848285016138ce565b91505092915050565b7f45524331393637557067726164653a206e657720696d706c656d656e7461746960008201527f6f6e206973206e6f742055555053000000000000000000000000000000000000602082015250565b600061396c602e83612ccc565b915061397782613910565b604082019050919050565b6000602082019050818103600083015261399b8161395f565b9050919050565b7f45524331393637557067726164653a20756e737570706f727465642070726f7860008201527f6961626c65555549440000000000000000000000000000000000000000000000602082015250565b60006139fe602983612ccc565b9150613a09826139a2565b604082019050919050565b60006020820190508181036000830152613a2d816139f1565b9050919050565b7f6163636f756e743a206e6f742066726f6d20456e747279506f696e7400000000600082015250565b6000613a6a601c83612ccc565b9150613a7582613a34565b602082019050919050565b60006020820190508181036000830152613a9981613a5d565b9050919050565b50565b6000613ab060008361387b565b9150613abb82613aa0565b600082019050919050565b6000613ad182613aa3565b9150819050919050565b6000613ae6826122f4565b9150613af1836122f4565b9250817fffffffffffffffffffffffffffffffffffffffffffffffffffffffffffffffff0483118215151615613b2a57613b296131d9565b5b828202905092915050565b7f455243313936373a206e657720696d706c656d656e746174696f6e206973206e60008201527f6f74206120636f6e747261637400000000000000000000000000000000000000602082015250565b6000613b91602d83612ccc565b9150613b9c82613b35565b604082019050919050565b60006020820190508181036000830152613bc081613b84565b9050919050565b7f4e487b7100000000000000000000000000000000000000000000000000000000600052602160045260246000fd5b7f45434453413a20696e76616c6964207369676e61747572650000000000000000600082015250565b6000613c2c601883612ccc565b9150613c3782613bf6565b602082019050919050565b60006020820190508181036000830152613c5b81613c1f565b9050919050565b7f45434453413a20696e76616c6964207369676e6174757265206c656e67746800600082015250565b6000613c98601f83612ccc565b9150613ca382613c62565b602082019050919050565b60006020820190508181036000830152613cc781613c8b565b9050919050565b7f45434453413a20696e76616c6964207369676e6174757265202773272076616c60008201527f7565000000000000000000000000000000000000000000000000000000000000602082015250565b6000613d2a602283612ccc565b9150613d3582613cce565b604082019050919050565b60006020820190508181036000830152613d5981613d1d565b9050919050565b613d69816136b7565b82525050565b6000608082019050613d846000830187612be4565b613d916020830186613d60565b613d9e6040830185612be4565b613dab6060830184612be4565b95945050505050565b7f416464726573733a2063616c6c20746f206e6f6e2d636f6e7472616374000000600082015250565b6000613dea601d83612ccc565b9150613df582613db4565b602082019050919050565b60006020820190508181036000830152613e1981613ddd565b905091905056fe416464726573733a206c6f772d6c6576656c2064656c65676174652063616c6c206661696c6564a264697066735822122076647bbc26b9868d2d005289136949a65ab15369fc5ac95609858b8f6447f0e764736f6c634300080c0033",
  "immutableReferences": {
    "618": [
      {
        "length": 32,
        "start": 2897
      },
      {
        "length": 32,
        "start": 3040
      },
      {
        "length": 32,
        "start": 3618
      },
      {
        "length": 32,
        "start": 3761
      },
      {
        "length": 32,
        "start": 3969
      }
    ],
    "3208": [
      {
        "length": 32,
        "start": 4429
      },
      {
        "length": 32,
        "start": 7261
      }
    ]
  },
  "source": "// SPDX-License-Identifier: GPL-3.0\r\npragma solidity ^0.8.12;\r\n\r\n/* solhint-disable avoid-low-level-calls */\r\n/* solhint-disable no-inline-assembly */\r\n/* solhint-disable reason-string */\r\n\r\nimport \"@openzeppelin/contracts/utils/cryptography/ECDSA.sol\";\r\nimport \"@openzeppelin/contracts/proxy/utils/Initializable.sol\";\r\nimport \"@openzeppelin/contracts/proxy/utils/UUPSUpgradeable.sol\";\r\n\r\nimport \"./BaseAccount.sol\";\r\nimport \"./TokenCallbackHandler.sol\";\r\n\r\n/**\r\n  * minimal account.\r\n  *  this is sample minimal account.\r\n  *  has execute, eth handling methods\r\n  *  has a single signer that can send requests through the entryPoint.\r\n  */\r\ncontract DiscoveryAccount is BaseAccount, TokenCallbackHandler, UUPSUpgradeable, Initializable {\r\n    using ECDSA for bytes32;\r\n\r\n    // receiver address => allowed?\r\n    mapping(address => bool) public allowedReceivers; // used to send native tokens\r\n    // contract address => allowed?\r\n    mapping(address => bool) public allowedContracts; // used th interact with other contracts\r\n    // contract address => function signature => disallowed?\r\n    mapping(address => mapping(string => bool)) public disallowedFunctions;\r\n\r\n\r\n    address public owner;\r\n\r\n    IEntryPoint private immutable _entryPoint;\r\n\r\n    event DiscoveryAccountInitialized(IEntryPoint indexed entryPoint, address indexed owner);\r\n\r\n    modifier onlyOwner() {\r\n        _onlyOwner();\r\n        _;\r\n    }\r\n\r\n    /// @inheritdoc BaseAccount\r\n    function entryPoint() public view virtual override returns (IEntryPoint) {\r\n        return _entryPoint;\r\n    }\r\n\r\n\r\n    // solhint-disable-next-line no-empty-blocks\r\n    receive() external payable {}\r\n\r\n    constructor(IEntryPoint anEntryPoint) {\r\n        _entryPoint = anEntryPoint;\r\n        _disableInitializers();\r\n    }\r\n\r\n    function _onlyOwner() internal view {\r\n        //directly from EOA owner, or through the account itself (which gets redirected through execute())\r\n        require(msg.sender == owner || msg.sender == address(this), \"only owner\");\r\n    }\r\n\r\n    /**\r\n     * execute a transaction (called directly from owner, or by entryPoint)\r\n     */\r\n    function execute(address dest, uint256 value, bytes calldata func) external {\r\n        _requireFromEntryPointOrOwner();\r\n        require(isOperationAllowed(dest, value, func), \"operation not allowed\");\r\n        _call(dest, value, func);\r\n    }\r\n\r\n    function isOperationAllowed(address dest, uint256 value, bytes calldata func) public view returns (bool) {\r\n        // extract function name from func\r\n        require(\r\n            (allowedReceivers[dest]|| allowedContracts[dest]) && !disallowedFunctions[dest][processCallData(func)],\r\n            \"operation not allowed\"\r\n        );\r\n        return true;\r\n    }\r\n\r\n    /**\r\n     * execute a sequence of transactions\r\n     */\r\n    function executeBatch(address[] calldata dest, bytes[] calldata func) external {\r\n        _requireFromEntryPointOrOwner();\r\n        require(dest.length == func.length, \"wrong array lengths\");\r\n        for (uint256 i = 0; i < dest.length; i++) {\r\n            isOperationAllowed(dest[i], 0, func[i]);\r\n            _call(dest[i], 0, func[i]);\r\n        }\r\n    }\r\n\r\n    /**\r\n     * @dev The _entryPoint member is immutable, to reduce gas consumption.  To upgrade EntryPoint,\r\n     * a new implementation of DiscoveryAccount must be deployed with the new EntryPoint address, then upgrading\r\n      * the implementation by calling `upgradeTo()`\r\n     */\r\n    function initialize(address anOwner) public virtual initializer {\r\n        _initialize(anOwner);\r\n    }\r\n\r\n    function _initialize(address anOwner) internal virtual {\r\n        owner = anOwner;\r\n        emit DiscoveryAccountInitialized(_entryPoint, owner);\r\n    }\r\n\r\n    // Require the function call went through EntryPoint or owner\r\n    function _requireFromEntryPointOrOwner() internal view {\r\n        require(msg.sender == address(entryPoint()) || msg.sender == owner, \"account: not Owner or EntryPoint\");\r\n    }\r\n\r\n    /// implement template method of BaseAccount\r\n    function _validateSignature(UserOperation calldata userOp, bytes32 userOpHash)\r\n    internal override virtual returns (uint256 validationData) {\r\n        bytes32 hash = userOpHash.toEthSignedMessageHash();\r\n        if (owner != hash.recover(userOp.signature))\r\n            return SIG_VALIDATION_FAILED;\r\n        return 0;\r\n    }\r\n\r\n    function _call(address target, uint256 value, bytes memory data) internal {\r\n        (bool success, bytes memory result) = target.call{value : value}(data);\r\n        if (!success) {\r\n            assembly {\r\n                revert(add(result, 32), mload(result))\r\n            }\r\n        }\r\n    }\r\n\r\n    /**\r\n     * check current account deposit in the entryPoint\r\n     */\r\n    function getDeposit() public view returns (uint256) {\r\n        return entryPoint().balanceOf(address(this));\r\n    }\r\n\r\n    /**\r\n     * deposit more funds for this account in the entryPoint\r\n     */\r\n    function addDeposit() public payable {\r\n        entryPoint().depositTo{value : msg.value}(address(this));\r\n    }\r\n\r\n    /**\r\n     * withdraw value from the account's deposit\r\n     * @param withdrawAddress target to send to\r\n     * @param amount to withdraw\r\n     */\r\n    function withdrawDepositTo(address payable withdrawAddress, uint256 amount) public onlyOwner {\r\n        entryPoint().withdrawTo(withdrawAddress, amount);\r\n    }\r\n\r\n    function _authorizeUpgrade(address newImplementation) internal view override {\r\n        (newImplementation);\r\n        _onlyOwner();\r\n    }\r\n\r\n\r\n    // edit whitelist\r\n\r\n    function setAllowedReceiver(address receiver, bool allowed) public onlyOwner {\r\n        allowedReceivers[receiver] = allowed;\r\n    }\r\n\r\n    function setAllowedContract(address contractAddress, bool allowed) public onlyOwner {\r\n        allowedContracts[contractAddress] = allowed;\r\n    }\r\n\r\n    function setDisallowedFunction(address contractAddress, string memory functionSignature, bool disallowed) public onlyOwner {\r\n        disallowedFunctions[contractAddress][functionSignature] = disallowed;\r\n    }\r\n\r\n\r\n\r\n    // utils\r\n\r\n    // this code assumes that the callData only contains the function selector as its first 4 bytes. \r\n    // If your callData includes additional parameters or data, you would need to modify the code \r\n    // accordingly to extract the function selector correctly\r\n\r\n    // function extractFunctionName(bytes calldata callData) public pure returns (string memory) {\r\n    //     bytes4 functionSelector;\r\n    //     if (callData.length >= 4) {\r\n    //         assembly {\r\n    //             let a := mload(0x40)\r\n    //             let b := add(a, 32)\r\n    //             calldatacopy(a, 4, 32)\r\n    //             calldatacopy(b, add(4, 32), 32)\r\n    //             let result := add(mload(a), mload(b))\r\n    //         }\r\n    //     }\r\n\r\n    //     // Convert the function selector to a string\r\n    //     string memory functionName = functionSelectorToString(functionSelector);\r\n\r\n    //     return functionName;\r\n    // }\r\n\r\n    // function functionSelectorToString(bytes4 selector) internal pure returns (string memory) {\r\n    //     bytes memory signature = new bytes(4);\r\n    //     signature[0] = bytes1(selector);\r\n    //     signature[1] = bytes1(selector << 8);\r\n    //     signature[2] = bytes1(selector << 16);\r\n    //     signature[3] = bytes1(selector << 24);\r\n\r\n    //     bytes memory functionNameBytes = new bytes(32);\r\n    //     uint length = 0;\r\n\r\n    //     // Find the end of the function name\r\n    //     for (uint i = 0; i < 32; i++) {\r\n    //         if (signature[i] == 0x00) {\r\n    //             break;\r\n    //         }\r\n    //         functionNameBytes[i] = signature[i];\r\n    //         length++;\r\n    //     }\r\n\r\n    //     bytes memory trimmedFunctionNameBytes = new bytes(length);\r\n    //     for (uint i = 0; i < length; i++) {\r\n    //         trimmedFunctionNameBytes[i] = functionNameBytes[i];\r\n    //     }\r\n\r\n    //     return string(trimmedFunctionNameBytes);\r\n    // }\r\n\r\n    function processCallData(bytes memory callData) public pure returns (string memory) {\r\n        // Decode the call data using ethers.js\r\n        (bytes4 selector, ) = abi.decode(callData, (bytes4, bytes));\r\n\r\n        // Get the function name from the selector\r\n        string memory functionName = abi.decode(bytes4ToString(selector), (string));\r\n\r\n        return functionName;\r\n    }\r\n\r\n    // Utility function to convert bytes4 to string\r\n    function bytes4ToString(bytes4 data) private pure returns (bytes memory) {\r\n        bytes memory bytesString = new bytes(32);\r\n        for (uint256 i; i < 4; i++) {\r\n            bytes1 char = bytes1(bytes4(uint32(0xFF000000) >> (i * 8)));\r\n            bytesString[i] = char;\r\n        }\r\n        return bytesString;\r\n    }\r\n}\r\n",
  "sourcePath": "C:\\Users\\hervi\\Documents\\Blockchain Projects\\ETHPrague2023\\Discovery-Wallet\\contracts\\Discovery_Account\\DiscoveryAccount.sol",
  "compiler": {
    "name": "solc",
    "version": "0.8.12+commit.f00d7308.Emscripten.clang"
  },
  "schemaVersion": "3.4.12",
  "updatedAt": "2023-06-10T15:23:30.709Z",
  "devdoc": {
    "kind": "dev",
    "methods": {
      "initialize(address)": {
        "details": "The _entryPoint member is immutable, to reduce gas consumption.  To upgrade EntryPoint, a new implementation of DiscoveryAccount must be deployed with the new EntryPoint address, then upgrading the implementation by calling `upgradeTo()`"
      },
      "proxiableUUID()": {
        "details": "Implementation of the ERC1822 {proxiableUUID} function. This returns the storage slot used by the implementation. It is used to validate the implementation's compatibility when performing an upgrade. IMPORTANT: A proxy pointing at a proxiable contract should not be considered proxiable itself, because this risks bricking a proxy that upgrades to it, by delegating to itself until out of gas. Thus it is critical that this function revert if invoked through a proxy. This is guaranteed by the `notDelegated` modifier."
      },
      "supportsInterface(bytes4)": {
        "details": "Returns true if this contract implements the interface defined by `interfaceId`. See the corresponding https://eips.ethereum.org/EIPS/eip-165#how-interfaces-are-identified[EIP section] to learn more about how these ids are created. This function call must use less than 30 000 gas."
      },
      "upgradeTo(address)": {
        "custom:oz-upgrades-unsafe-allow-reachable": "delegatecall",
        "details": "Upgrade the implementation of the proxy to `newImplementation`. Calls {_authorizeUpgrade}. Emits an {Upgraded} event."
      },
      "upgradeToAndCall(address,bytes)": {
        "custom:oz-upgrades-unsafe-allow-reachable": "delegatecall",
        "details": "Upgrade the implementation of the proxy to `newImplementation`, and subsequently execute the function call encoded in `data`. Calls {_authorizeUpgrade}. Emits an {Upgraded} event."
      },
      "withdrawDepositTo(address,uint256)": {
        "params": {
          "amount": "to withdraw",
          "withdrawAddress": "target to send to"
        }
      }
    },
    "version": 1
  },
  "userdoc": {
    "kind": "user",
    "methods": {
      "addDeposit()": {
        "notice": "deposit more funds for this account in the entryPoint"
      },
      "entryPoint()": {
        "notice": "return the entryPoint used by this account. subclass should return the current entryPoint used by this account."
      },
      "execute(address,uint256,bytes)": {
        "notice": "execute a transaction (called directly from owner, or by entryPoint)"
      },
      "executeBatch(address[],bytes[])": {
        "notice": "execute a sequence of transactions"
      },
      "getDeposit()": {
        "notice": "check current account deposit in the entryPoint"
      },
      "getNonce()": {
        "notice": "Return the account nonce. This method returns the next sequential nonce. For a nonce of a specific key, use `entrypoint.getNonce(account, key)`"
      },
      "validateUserOp((address,uint256,bytes,bytes,uint256,uint256,uint256,uint256,uint256,bytes,bytes),bytes32,uint256)": {
        "notice": "Validate user's signature and nonce. subclass doesn't need to override this method. Instead, it should override the specific internal validation methods."
      },
      "withdrawDepositTo(address,uint256)": {
        "notice": "withdraw value from the account's deposit"
      }
    },
    "notice": "minimal account.  this is sample minimal account.  has execute, eth handling methods  has a single signer that can send requests through the entryPoint.",
    "version": 1
  }
}