{
  "contractName": "SimpleAccount",
  "abi": [
    {
      "inputs": [
        {
          "internalType": "contract IEntryPoint",
          "name": "anEntryPoint",
          "type": "address"
        }
      ],
      "stateMutability": "nonpayable",
      "type": "constructor"
    },
    {
      "anonymous": false,
      "inputs": [
        {
          "indexed": false,
          "internalType": "address",
          "name": "previousAdmin",
          "type": "address"
        },
        {
          "indexed": false,
          "internalType": "address",
          "name": "newAdmin",
          "type": "address"
        }
      ],
      "name": "AdminChanged",
      "type": "event"
    },
    {
      "anonymous": false,
      "inputs": [
        {
          "indexed": true,
          "internalType": "address",
          "name": "beacon",
          "type": "address"
        }
      ],
      "name": "BeaconUpgraded",
      "type": "event"
    },
    {
      "anonymous": false,
      "inputs": [
        {
          "indexed": false,
          "internalType": "uint8",
          "name": "version",
          "type": "uint8"
        }
      ],
      "name": "Initialized",
      "type": "event"
    },
    {
      "anonymous": false,
      "inputs": [
        {
          "indexed": true,
          "internalType": "contract IEntryPoint",
          "name": "entryPoint",
          "type": "address"
        },
        {
          "indexed": true,
          "internalType": "address",
          "name": "owner",
          "type": "address"
        }
      ],
      "name": "SimpleAccountInitialized",
      "type": "event"
    },
    {
      "anonymous": false,
      "inputs": [
        {
          "indexed": true,
          "internalType": "address",
          "name": "implementation",
          "type": "address"
        }
      ],
      "name": "Upgraded",
      "type": "event"
    },
    {
      "inputs": [],
      "name": "getNonce",
      "outputs": [
        {
          "internalType": "uint256",
          "name": "",
          "type": "uint256"
        }
      ],
      "stateMutability": "view",
      "type": "function"
    },
    {
      "inputs": [
        {
          "internalType": "address",
          "name": "",
          "type": "address"
        },
        {
          "internalType": "address",
          "name": "",
          "type": "address"
        },
        {
          "internalType": "uint256[]",
          "name": "",
          "type": "uint256[]"
        },
        {
          "internalType": "uint256[]",
          "name": "",
          "type": "uint256[]"
        },
        {
          "internalType": "bytes",
          "name": "",
          "type": "bytes"
        }
      ],
      "name": "onERC1155BatchReceived",
      "outputs": [
        {
          "internalType": "bytes4",
          "name": "",
          "type": "bytes4"
        }
      ],
      "stateMutability": "pure",
      "type": "function"
    },
    {
      "inputs": [
        {
          "internalType": "address",
          "name": "",
          "type": "address"
        },
        {
          "internalType": "address",
          "name": "",
          "type": "address"
        },
        {
          "internalType": "uint256",
          "name": "",
          "type": "uint256"
        },
        {
          "internalType": "uint256",
          "name": "",
          "type": "uint256"
        },
        {
          "internalType": "bytes",
          "name": "",
          "type": "bytes"
        }
      ],
      "name": "onERC1155Received",
      "outputs": [
        {
          "internalType": "bytes4",
          "name": "",
          "type": "bytes4"
        }
      ],
      "stateMutability": "pure",
      "type": "function"
    },
    {
      "inputs": [
        {
          "internalType": "address",
          "name": "",
          "type": "address"
        },
        {
          "internalType": "address",
          "name": "",
          "type": "address"
        },
        {
          "internalType": "uint256",
          "name": "",
          "type": "uint256"
        },
        {
          "internalType": "bytes",
          "name": "",
          "type": "bytes"
        }
      ],
      "name": "onERC721Received",
      "outputs": [
        {
          "internalType": "bytes4",
          "name": "",
          "type": "bytes4"
        }
      ],
      "stateMutability": "pure",
      "type": "function"
    },
    {
      "inputs": [],
      "name": "owner",
      "outputs": [
        {
          "internalType": "address",
          "name": "",
          "type": "address"
        }
      ],
      "stateMutability": "view",
      "type": "function"
    },
    {
      "inputs": [],
      "name": "proxiableUUID",
      "outputs": [
        {
          "internalType": "bytes32",
          "name": "",
          "type": "bytes32"
        }
      ],
      "stateMutability": "view",
      "type": "function"
    },
    {
      "inputs": [
        {
          "internalType": "bytes4",
          "name": "interfaceId",
          "type": "bytes4"
        }
      ],
      "name": "supportsInterface",
      "outputs": [
        {
          "internalType": "bool",
          "name": "",
          "type": "bool"
        }
      ],
      "stateMutability": "view",
      "type": "function"
    },
    {
      "inputs": [
        {
          "internalType": "address",
          "name": "",
          "type": "address"
        },
        {
          "internalType": "address",
          "name": "",
          "type": "address"
        },
        {
          "internalType": "address",
          "name": "",
          "type": "address"
        },
        {
          "internalType": "uint256",
          "name": "",
          "type": "uint256"
        },
        {
          "internalType": "bytes",
          "name": "",
          "type": "bytes"
        },
        {
          "internalType": "bytes",
          "name": "",
          "type": "bytes"
        }
      ],
      "name": "tokensReceived",
      "outputs": [],
      "stateMutability": "pure",
      "type": "function"
    },
    {
      "inputs": [
        {
          "internalType": "address",
          "name": "newImplementation",
          "type": "address"
        }
      ],
      "name": "upgradeTo",
      "outputs": [],
      "stateMutability": "nonpayable",
      "type": "function"
    },
    {
      "inputs": [
        {
          "internalType": "address",
          "name": "newImplementation",
          "type": "address"
        },
        {
          "internalType": "bytes",
          "name": "data",
          "type": "bytes"
        }
      ],
      "name": "upgradeToAndCall",
      "outputs": [],
      "stateMutability": "payable",
      "type": "function"
    },
    {
      "inputs": [
        {
          "components": [
            {
              "internalType": "address",
              "name": "sender",
              "type": "address"
            },
            {
              "internalType": "uint256",
              "name": "nonce",
              "type": "uint256"
            },
            {
              "internalType": "bytes",
              "name": "initCode",
              "type": "bytes"
            },
            {
              "internalType": "bytes",
              "name": "callData",
              "type": "bytes"
            },
            {
              "internalType": "uint256",
              "name": "callGasLimit",
              "type": "uint256"
            },
            {
              "internalType": "uint256",
              "name": "verificationGasLimit",
              "type": "uint256"
            },
            {
              "internalType": "uint256",
              "name": "preVerificationGas",
              "type": "uint256"
            },
            {
              "internalType": "uint256",
              "name": "maxFeePerGas",
              "type": "uint256"
            },
            {
              "internalType": "uint256",
              "name": "maxPriorityFeePerGas",
              "type": "uint256"
            },
            {
              "internalType": "bytes",
              "name": "paymasterAndData",
              "type": "bytes"
            },
            {
              "internalType": "bytes",
              "name": "signature",
              "type": "bytes"
            }
          ],
          "internalType": "struct UserOperation",
          "name": "userOp",
          "type": "tuple"
        },
        {
          "internalType": "bytes32",
          "name": "userOpHash",
          "type": "bytes32"
        },
        {
          "internalType": "uint256",
          "name": "missingAccountFunds",
          "type": "uint256"
        }
      ],
      "name": "validateUserOp",
      "outputs": [
        {
          "internalType": "uint256",
          "name": "validationData",
          "type": "uint256"
        }
      ],
      "stateMutability": "nonpayable",
      "type": "function"
    },
    {
      "stateMutability": "payable",
      "type": "receive"
    },
    {
      "inputs": [],
      "name": "entryPoint",
      "outputs": [
        {
          "internalType": "contract IEntryPoint",
          "name": "",
          "type": "address"
        }
      ],
      "stateMutability": "view",
      "type": "function"
    },
    {
      "inputs": [
        {
          "internalType": "address",
          "name": "dest",
          "type": "address"
        },
        {
          "internalType": "uint256",
          "name": "value",
          "type": "uint256"
        },
        {
          "internalType": "bytes",
          "name": "func",
          "type": "bytes"
        }
      ],
      "name": "execute",
      "outputs": [],
      "stateMutability": "nonpayable",
      "type": "function"
    },
    {
      "inputs": [
        {
          "internalType": "address",
          "name": "dest",
          "type": "address"
        },
        {
          "internalType": "uint256",
          "name": "value",
          "type": "uint256"
        },
        {
          "internalType": "bytes",
          "name": "func",
          "type": "bytes"
        }
      ],
      "name": "isOperationAllowed",
      "outputs": [
        {
          "internalType": "bool",
          "name": "",
          "type": "bool"
        }
      ],
      "stateMutability": "view",
      "type": "function"
    },
    {
      "inputs": [
        {
          "internalType": "address[]",
          "name": "dest",
          "type": "address[]"
        },
        {
          "internalType": "bytes[]",
          "name": "func",
          "type": "bytes[]"
        }
      ],
      "name": "executeBatch",
      "outputs": [],
      "stateMutability": "nonpayable",
      "type": "function"
    },
    {
      "inputs": [
        {
          "internalType": "address",
          "name": "anOwner",
          "type": "address"
        }
      ],
      "name": "initialize",
      "outputs": [],
      "stateMutability": "nonpayable",
      "type": "function"
    },
    {
      "inputs": [],
      "name": "getDeposit",
      "outputs": [
        {
          "internalType": "uint256",
          "name": "",
          "type": "uint256"
        }
      ],
      "stateMutability": "view",
      "type": "function"
    },
    {
      "inputs": [],
      "name": "addDeposit",
      "outputs": [],
      "stateMutability": "payable",
      "type": "function"
    },
    {
      "inputs": [
        {
          "internalType": "address payable",
          "name": "withdrawAddress",
          "type": "address"
        },
        {
          "internalType": "uint256",
          "name": "amount",
          "type": "uint256"
        }
      ],
      "name": "withdrawDepositTo",
      "outputs": [],
      "stateMutability": "nonpayable",
      "type": "function"
    }
  ],
  "bytecode": "0x60c06040523073ffffffffffffffffffffffffffffffffffffffff1660809073ffffffffffffffffffffffffffffffffffffffff168152503480156200004457600080fd5b50604051620037013803806200370183398181016040528101906200006a9190620001f9565b8073ffffffffffffffffffffffffffffffffffffffff1660a08173ffffffffffffffffffffffffffffffffffffffff1681525050620000ae620000b560201b60201c565b506200030f565b600060019054906101000a900460ff161562000108576040517f08c379a0000000000000000000000000000000000000000000000000000000008152600401620000ff90620002b2565b60405180910390fd5b60ff801660008054906101000a900460ff1660ff1614620001795760ff6000806101000a81548160ff021916908360ff1602179055507f7f26b83ff96e1f2b6a682f133852f6798a09c465da95921460cefb384740249860ff604051620001709190620002f2565b60405180910390a15b565b600080fd5b600073ffffffffffffffffffffffffffffffffffffffff82169050919050565b6000620001ad8262000180565b9050919050565b6000620001c182620001a0565b9050919050565b620001d381620001b4565b8114620001df57600080fd5b50565b600081519050620001f381620001c8565b92915050565b6000602082840312156200021257620002116200017b565b5b60006200022284828501620001e2565b91505092915050565b600082825260208201905092915050565b7f496e697469616c697a61626c653a20636f6e747261637420697320696e69746960008201527f616c697a696e6700000000000000000000000000000000000000000000000000602082015250565b60006200029a6027836200022b565b9150620002a7826200023c565b604082019050919050565b60006020820190508181036000830152620002cd816200028b565b9050919050565b600060ff82169050919050565b620002ec81620002d4565b82525050565b6000602082019050620003096000830184620002e1565b92915050565b60805160a0516133a96200035860003960008181610c2601526115f1015260008181610757015281816107e601528181610a0801528181610a970152610b4701526133a96000f3fe6080604052600436106101175760003560e01c80634f1ef286116100a0578063bc197c8111610064578063bc197c811461038b578063c399ec88146103c8578063c4d66de8146103f3578063d087d2881461041c578063f23a6e61146104475761011e565b80634f1ef286146102c557806352d1902d146102e15780638da5cb5b1461030c578063b0d691fe14610337578063b61d27f6146103625761011e565b806318dfb3c7116100e757806318dfb3c7146102035780633659cfe61461022c5780633a871cdd146102555780634a58db19146102925780634d44560d1461029c5761011e565b806223de291461012357806301ffc9a71461014c57806302c3bd4c14610189578063150b7a02146101c65761011e565b3661011e57005b600080fd5b34801561012f57600080fd5b5061014a60048036038101906101459190611d23565b610484565b005b34801561015857600080fd5b50610173600480360381019061016e9190611e4a565b61048e565b6040516101809190611e92565b60405180910390f35b34801561019557600080fd5b506101b060048036038101906101ab9190611ead565b6105c8565b6040516101bd9190611e92565b60405180910390f35b3480156101d257600080fd5b506101ed60048036038101906101e89190611f21565b6105d6565b6040516101fa9190611fb8565b60405180910390f35b34801561020f57600080fd5b5061022a6004803603810190610225919061207f565b6105eb565b005b34801561023857600080fd5b50610253600480360381019061024e9190612100565b610755565b005b34801561026157600080fd5b5061027c60048036038101906102779190612188565b6108de565b6040516102899190612206565b60405180910390f35b61029a610911565b005b3480156102a857600080fd5b506102c360048036038101906102be919061225f565b610986565b005b6102df60048036038101906102da91906123e0565b610a06565b005b3480156102ed57600080fd5b506102f6610b43565b604051610303919061244b565b60405180910390f35b34801561031857600080fd5b50610321610bfc565b60405161032e9190612475565b60405180910390f35b34801561034357600080fd5b5061034c610c22565b60405161035991906124ef565b60405180910390f35b34801561036e57600080fd5b5061038960048036038101906103849190611ead565b610c4a565b005b34801561039757600080fd5b506103b260048036038101906103ad9190612560565b610cf2565b6040516103bf9190611fb8565b60405180910390f35b3480156103d457600080fd5b506103dd610d0a565b6040516103ea9190612206565b60405180910390f35b3480156103ff57600080fd5b5061041a60048036038101906104159190612100565b610d92565b005b34801561042857600080fd5b50610431610ed2565b60405161043e9190612206565b60405180910390f35b34801561045357600080fd5b5061046e6004803603810190610469919061263c565b610f5d565b60405161047b9190611fb8565b60405180910390f35b5050505050505050565b60007f150b7a02000000000000000000000000000000000000000000000000000000007bffffffffffffffffffffffffffffffffffffffffffffffffffffffff1916827bffffffffffffffffffffffffffffffffffffffffffffffffffffffff1916148061055957507f4e2312e0000000000000000000000000000000000000000000000000000000007bffffffffffffffffffffffffffffffffffffffffffffffffffffffff1916827bffffffffffffffffffffffffffffffffffffffffffffffffffffffff1916145b806105c157507f01ffc9a7000000000000000000000000000000000000000000000000000000007bffffffffffffffffffffffffffffffffffffffffffffffffffffffff1916827bffffffffffffffffffffffffffffffffffffffffffffffffffffffff1916145b9050919050565b600060019050949350505050565b600063150b7a0260e01b905095945050505050565b6105f3610f73565b81819050848490501461063b576040517f08c379a000000000000000000000000000000000000000000000000000000000815260040161063290612733565b60405180910390fd5b60005b8484905081101561074e576106a085858381811061065f5761065e612753565b5b90506020020160208101906106749190612100565b600085858581811061068957610688612753565b5b905060200281019061069b9190612791565b6105c8565b5061073b8585838181106106b7576106b6612753565b5b90506020020160208101906106cc9190612100565b60008585858181106106e1576106e0612753565b5b90506020028101906106f39190612791565b8080601f016020809104026020016040519081016040528093929190818152602001838380828437600081840152601f19601f82011690508083019250505050505050611042565b808061074690612823565b91505061063e565b5050505050565b7f000000000000000000000000000000000000000000000000000000000000000073ffffffffffffffffffffffffffffffffffffffff163073ffffffffffffffffffffffffffffffffffffffff1614156107e4576040517f08c379a00000000000000000000000000000000000000000000000000000000081526004016107db906128de565b60405180910390fd5b7f000000000000000000000000000000000000000000000000000000000000000073ffffffffffffffffffffffffffffffffffffffff166108236110c6565b73ffffffffffffffffffffffffffffffffffffffff1614610879576040517f08c379a000000000000000000000000000000000000000000000000000000000815260040161087090612970565b60405180910390fd5b6108828161111d565b6108db81600067ffffffffffffffff8111156108a1576108a06122b5565b5b6040519080825280601f01601f1916602001820160405280156108d35781602001600182028036833780820191505090505b506000611128565b50565b60006108e8611296565b6108f2848461130d565b905061090184602001356113eb565b61090a826113ee565b9392505050565b610919610c22565b73ffffffffffffffffffffffffffffffffffffffff1663b760faf934306040518363ffffffff1660e01b81526004016109529190612475565b6000604051808303818588803b15801561096b57600080fd5b505af115801561097f573d6000803e3d6000fd5b5050505050565b61098e61148a565b610996610c22565b73ffffffffffffffffffffffffffffffffffffffff1663205c287883836040518363ffffffff1660e01b81526004016109d092919061299f565b600060405180830381600087803b1580156109ea57600080fd5b505af11580156109fe573d6000803e3d6000fd5b505050505050565b7f000000000000000000000000000000000000000000000000000000000000000073ffffffffffffffffffffffffffffffffffffffff163073ffffffffffffffffffffffffffffffffffffffff161415610a95576040517f08c379a0000000000000000000000000000000000000000000000000000000008152600401610a8c906128de565b60405180910390fd5b7f000000000000000000000000000000000000000000000000000000000000000073ffffffffffffffffffffffffffffffffffffffff16610ad46110c6565b73ffffffffffffffffffffffffffffffffffffffff1614610b2a576040517f08c379a0000000000000000000000000000000000000000000000000000000008152600401610b2190612970565b60405180910390fd5b610b338261111d565b610b3f82826001611128565b5050565b60007f000000000000000000000000000000000000000000000000000000000000000073ffffffffffffffffffffffffffffffffffffffff163073ffffffffffffffffffffffffffffffffffffffff1614610bd3576040517f08c379a0000000000000000000000000000000000000000000000000000000008152600401610bca90612a3a565b60405180910390fd5b7f360894a13ba1a3210667c828492db98dca3e2076cc3735a920a3ca505d382bbc60001b905090565b600060029054906101000a900473ffffffffffffffffffffffffffffffffffffffff1681565b60007f0000000000000000000000000000000000000000000000000000000000000000905090565b610c52610f73565b610c5e848484846105c8565b610c9d576040517f08c379a0000000000000000000000000000000000000000000000000000000008152600401610c9490612aa6565b60405180910390fd5b610cec848484848080601f016020809104026020016040519081016040528093929190818152602001838380828437600081840152601f19601f82011690508083019250505050505050611042565b50505050565b600063bc197c8160e01b905098975050505050505050565b6000610d14610c22565b73ffffffffffffffffffffffffffffffffffffffff166370a08231306040518263ffffffff1660e01b8152600401610d4c9190612475565b602060405180830381865afa158015610d69573d6000803e3d6000fd5b505050506040513d601f19601f82011682018060405250810190610d8d9190612adb565b905090565b60008060019054906101000a900460ff16159050808015610dc35750600160008054906101000a900460ff1660ff16105b80610df05750610dd230611552565b158015610def5750600160008054906101000a900460ff1660ff16145b5b610e2f576040517f08c379a0000000000000000000000000000000000000000000000000000000008152600401610e2690612b7a565b60405180910390fd5b60016000806101000a81548160ff021916908360ff1602179055508015610e6c576001600060016101000a81548160ff0219169083151502179055505b610e7582611575565b8015610ece5760008060016101000a81548160ff0219169083151502179055507f7f26b83ff96e1f2b6a682f133852f6798a09c465da95921460cefb38474024986001604051610ec59190612be2565b60405180910390a15b5050565b6000610edc610c22565b73ffffffffffffffffffffffffffffffffffffffff166335567e1a3060006040518363ffffffff1660e01b8152600401610f17929190612c5c565b602060405180830381865afa158015610f34573d6000803e3d6000fd5b505050506040513d601f19601f82011682018060405250810190610f589190612adb565b905090565b600063f23a6e6160e01b90509695505050505050565b610f7b610c22565b73ffffffffffffffffffffffffffffffffffffffff163373ffffffffffffffffffffffffffffffffffffffff1614806110015750600060029054906101000a900473ffffffffffffffffffffffffffffffffffffffff1673ffffffffffffffffffffffffffffffffffffffff163373ffffffffffffffffffffffffffffffffffffffff16145b611040576040517f08c379a000000000000000000000000000000000000000000000000000000000815260040161103790612cd1565b60405180910390fd5b565b6000808473ffffffffffffffffffffffffffffffffffffffff16848460405161106b9190612d6b565b60006040518083038185875af1925050503d80600081146110a8576040519150601f19603f3d011682016040523d82523d6000602084013e6110ad565b606091505b5091509150816110bf57805160208201fd5b5050505050565b60006110f47f360894a13ba1a3210667c828492db98dca3e2076cc3735a920a3ca505d382bbc60001b611655565b60000160009054906101000a900473ffffffffffffffffffffffffffffffffffffffff16905090565b61112561148a565b50565b6111547f4910fdfa16fed3260ed0e7147f7cc6da11a60208b5b9406d12a635614ffd914360001b61165f565b60000160009054906101000a900460ff16156111785761117383611669565b611291565b8273ffffffffffffffffffffffffffffffffffffffff166352d1902d6040518163ffffffff1660e01b8152600401602060405180830381865afa9250505080156111e057506040513d601f19601f820116820180604052508101906111dd9190612d97565b60015b61121f576040517f08c379a000000000000000000000000000000000000000000000000000000000815260040161121690612e36565b60405180910390fd5b7f360894a13ba1a3210667c828492db98dca3e2076cc3735a920a3ca505d382bbc60001b8114611284576040517f08c379a000000000000000000000000000000000000000000000000000000000815260040161127b90612ec8565b60405180910390fd5b50611290838383611722565b5b505050565b61129e610c22565b73ffffffffffffffffffffffffffffffffffffffff163373ffffffffffffffffffffffffffffffffffffffff161461130b576040517f08c379a000000000000000000000000000000000000000000000000000000000815260040161130290612f34565b60405180910390fd5b565b6000806113198361174e565b90506113818480610140019061132f9190612791565b8080601f016020809104026020016040519081016040528093929190818152602001838380828437600081840152601f19601f820116905080830192505050505050508261178490919063ffffffff16565b73ffffffffffffffffffffffffffffffffffffffff16600060029054906101000a900473ffffffffffffffffffffffffffffffffffffffff1673ffffffffffffffffffffffffffffffffffffffff16146113df5760019150506113e5565b60009150505b92915050565b50565b600081146114875760003373ffffffffffffffffffffffffffffffffffffffff16827fffffffffffffffffffffffffffffffffffffffffffffffffffffffffffffffff9060405161143e90612f7a565b600060405180830381858888f193505050503d806000811461147c576040519150601f19603f3d011682016040523d82523d6000602084013e611481565b606091505b50509050505b50565b600060029054906101000a900473ffffffffffffffffffffffffffffffffffffffff1673ffffffffffffffffffffffffffffffffffffffff163373ffffffffffffffffffffffffffffffffffffffff16148061151157503073ffffffffffffffffffffffffffffffffffffffff163373ffffffffffffffffffffffffffffffffffffffff16145b611550576040517f08c379a000000000000000000000000000000000000000000000000000000000815260040161154790612fdb565b60405180910390fd5b565b6000808273ffffffffffffffffffffffffffffffffffffffff163b119050919050565b80600060026101000a81548173ffffffffffffffffffffffffffffffffffffffff021916908373ffffffffffffffffffffffffffffffffffffffff160217905550600060029054906101000a900473ffffffffffffffffffffffffffffffffffffffff1673ffffffffffffffffffffffffffffffffffffffff167f000000000000000000000000000000000000000000000000000000000000000073ffffffffffffffffffffffffffffffffffffffff167f47e55c76e7a6f1fd8996a1da8008c1ea29699cca35e7bcd057f2dec313b6e5de60405160405180910390a350565b6000819050919050565b6000819050919050565b61167281611552565b6116b1576040517f08c379a00000000000000000000000000000000000000000000000000000000081526004016116a89061306d565b60405180910390fd5b806116de7f360894a13ba1a3210667c828492db98dca3e2076cc3735a920a3ca505d382bbc60001b611655565b60000160006101000a81548173ffffffffffffffffffffffffffffffffffffffff021916908373ffffffffffffffffffffffffffffffffffffffff16021790555050565b61172b836117ab565b6000825111806117385750805b156117495761174783836117fa565b505b505050565b60007f19457468657265756d205369676e6564204d6573736167653a0a33320000000060005281601c52603c6000209050919050565b60008060006117938585611827565b915091506117a081611879565b819250505092915050565b6117b481611669565b8073ffffffffffffffffffffffffffffffffffffffff167fbc7cd75a20ee27fd9adebab32041f755214dbc6bffa90cc0225b39da2e5c2d3b60405160405180910390a250565b606061181f838360405180606001604052806027815260200161334d602791396119e7565b905092915050565b6000806041835114156118695760008060006020860151925060408601519150606086015160001a905061185d87828585611a6d565b94509450505050611872565b60006002915091505b9250929050565b6000600481111561188d5761188c61308d565b5b8160048111156118a05761189f61308d565b5b14156118ab576119e4565b600160048111156118bf576118be61308d565b5b8160048111156118d2576118d161308d565b5b1415611913576040517f08c379a000000000000000000000000000000000000000000000000000000000815260040161190a90613108565b60405180910390fd5b600260048111156119275761192661308d565b5b81600481111561193a5761193961308d565b5b141561197b576040517f08c379a000000000000000000000000000000000000000000000000000000000815260040161197290613174565b60405180910390fd5b6003600481111561198f5761198e61308d565b5b8160048111156119a2576119a161308d565b5b14156119e3576040517f08c379a00000000000000000000000000000000000000000000000000000000081526004016119da90613206565b60405180910390fd5b5b50565b60606000808573ffffffffffffffffffffffffffffffffffffffff1685604051611a119190612d6b565b600060405180830381855af49150503d8060008114611a4c576040519150601f19603f3d011682016040523d82523d6000602084013e611a51565b606091505b5091509150611a6286838387611b50565b925050509392505050565b6000807f7fffffffffffffffffffffffffffffff5d576e7357a4501ddfe92f46681b20a08360001c1115611aa8576000600391509150611b47565b600060018787878760405160008152602001604052604051611acd9493929190613235565b6020604051602081039080840390855afa158015611aef573d6000803e3d6000fd5b505050602060405103519050600073ffffffffffffffffffffffffffffffffffffffff168173ffffffffffffffffffffffffffffffffffffffff161415611b3e57600060019250925050611b47565b80600092509250505b94509492505050565b60608315611bb357600083511415611bab57611b6b85611552565b611baa576040517f08c379a0000000000000000000000000000000000000000000000000000000008152600401611ba1906132c6565b60405180910390fd5b5b829050611bbe565b611bbd8383611bc6565b5b949350505050565b600082511115611bd95781518083602001fd5b806040517f08c379a0000000000000000000000000000000000000000000000000000000008152600401611c0d919061332a565b60405180910390fd5b6000604051905090565b600080fd5b600080fd5b600073ffffffffffffffffffffffffffffffffffffffff82169050919050565b6000611c5582611c2a565b9050919050565b611c6581611c4a565b8114611c7057600080fd5b50565b600081359050611c8281611c5c565b92915050565b6000819050919050565b611c9b81611c88565b8114611ca657600080fd5b50565b600081359050611cb881611c92565b92915050565b600080fd5b600080fd5b600080fd5b60008083601f840112611ce357611ce2611cbe565b5b8235905067ffffffffffffffff811115611d0057611cff611cc3565b5b602083019150836001820283011115611d1c57611d1b611cc8565b5b9250929050565b60008060008060008060008060c0898b031215611d4357611d42611c20565b5b6000611d518b828c01611c73565b9850506020611d628b828c01611c73565b9750506040611d738b828c01611c73565b9650506060611d848b828c01611ca9565b955050608089013567ffffffffffffffff811115611da557611da4611c25565b5b611db18b828c01611ccd565b945094505060a089013567ffffffffffffffff811115611dd457611dd3611c25565b5b611de08b828c01611ccd565b92509250509295985092959890939650565b60007fffffffff0000000000000000000000000000000000000000000000000000000082169050919050565b611e2781611df2565b8114611e3257600080fd5b50565b600081359050611e4481611e1e565b92915050565b600060208284031215611e6057611e5f611c20565b5b6000611e6e84828501611e35565b91505092915050565b60008115159050919050565b611e8c81611e77565b82525050565b6000602082019050611ea76000830184611e83565b92915050565b60008060008060608587031215611ec757611ec6611c20565b5b6000611ed587828801611c73565b9450506020611ee687828801611ca9565b935050604085013567ffffffffffffffff811115611f0757611f06611c25565b5b611f1387828801611ccd565b925092505092959194509250565b600080600080600060808688031215611f3d57611f3c611c20565b5b6000611f4b88828901611c73565b9550506020611f5c88828901611c73565b9450506040611f6d88828901611ca9565b935050606086013567ffffffffffffffff811115611f8e57611f8d611c25565b5b611f9a88828901611ccd565b92509250509295509295909350565b611fb281611df2565b82525050565b6000602082019050611fcd6000830184611fa9565b92915050565b60008083601f840112611fe957611fe8611cbe565b5b8235905067ffffffffffffffff81111561200657612005611cc3565b5b60208301915083602082028301111561202257612021611cc8565b5b9250929050565b60008083601f84011261203f5761203e611cbe565b5b8235905067ffffffffffffffff81111561205c5761205b611cc3565b5b60208301915083602082028301111561207857612077611cc8565b5b9250929050565b6000806000806040858703121561209957612098611c20565b5b600085013567ffffffffffffffff8111156120b7576120b6611c25565b5b6120c387828801611fd3565b9450945050602085013567ffffffffffffffff8111156120e6576120e5611c25565b5b6120f287828801612029565b925092505092959194509250565b60006020828403121561211657612115611c20565b5b600061212484828501611c73565b91505092915050565b600080fd5b600061016082840312156121495761214861212d565b5b81905092915050565b6000819050919050565b61216581612152565b811461217057600080fd5b50565b6000813590506121828161215c565b92915050565b6000806000606084860312156121a1576121a0611c20565b5b600084013567ffffffffffffffff8111156121bf576121be611c25565b5b6121cb86828701612132565b93505060206121dc86828701612173565b92505060406121ed86828701611ca9565b9150509250925092565b61220081611c88565b82525050565b600060208201905061221b60008301846121f7565b92915050565b600061222c82611c2a565b9050919050565b61223c81612221565b811461224757600080fd5b50565b60008135905061225981612233565b92915050565b6000806040838503121561227657612275611c20565b5b60006122848582860161224a565b925050602061229585828601611ca9565b9150509250929050565b600080fd5b6000601f19601f8301169050919050565b7f4e487b7100000000000000000000000000000000000000000000000000000000600052604160045260246000fd5b6122ed826122a4565b810181811067ffffffffffffffff8211171561230c5761230b6122b5565b5b80604052505050565b600061231f611c16565b905061232b82826122e4565b919050565b600067ffffffffffffffff82111561234b5761234a6122b5565b5b612354826122a4565b9050602081019050919050565b82818337600083830152505050565b600061238361237e84612330565b612315565b90508281526020810184848401111561239f5761239e61229f565b5b6123aa848285612361565b509392505050565b600082601f8301126123c7576123c6611cbe565b5b81356123d7848260208601612370565b91505092915050565b600080604083850312156123f7576123f6611c20565b5b600061240585828601611c73565b925050602083013567ffffffffffffffff81111561242657612425611c25565b5b612432858286016123b2565b9150509250929050565b61244581612152565b82525050565b6000602082019050612460600083018461243c565b92915050565b61246f81611c4a565b82525050565b600060208201905061248a6000830184612466565b92915050565b6000819050919050565b60006124b56124b06124ab84611c2a565b612490565b611c2a565b9050919050565b60006124c78261249a565b9050919050565b60006124d9826124bc565b9050919050565b6124e9816124ce565b82525050565b600060208201905061250460008301846124e0565b92915050565b60008083601f8401126125205761251f611cbe565b5b8235905067ffffffffffffffff81111561253d5761253c611cc3565b5b60208301915083602082028301111561255957612558611cc8565b5b9250929050565b60008060008060008060008060a0898b0312156125805761257f611c20565b5b600061258e8b828c01611c73565b985050602061259f8b828c01611c73565b975050604089013567ffffffffffffffff8111156125c0576125bf611c25565b5b6125cc8b828c0161250a565b9650965050606089013567ffffffffffffffff8111156125ef576125ee611c25565b5b6125fb8b828c0161250a565b9450945050608089013567ffffffffffffffff81111561261e5761261d611c25565b5b61262a8b828c01611ccd565b92509250509295985092959890939650565b60008060008060008060a0878903121561265957612658611c20565b5b600061266789828a01611c73565b965050602061267889828a01611c73565b955050604061268989828a01611ca9565b945050606061269a89828a01611ca9565b935050608087013567ffffffffffffffff8111156126bb576126ba611c25565b5b6126c789828a01611ccd565b92509250509295509295509295565b600082825260208201905092915050565b7f77726f6e67206172726179206c656e6774687300000000000000000000000000600082015250565b600061271d6013836126d6565b9150612728826126e7565b602082019050919050565b6000602082019050818103600083015261274c81612710565b9050919050565b7f4e487b7100000000000000000000000000000000000000000000000000000000600052603260045260246000fd5b600080fd5b600080fd5b600080fd5b600080833560016020038436030381126127ae576127ad612782565b5b80840192508235915067ffffffffffffffff8211156127d0576127cf612787565b5b6020830192506001820236038313156127ec576127eb61278c565b5b509250929050565b7f4e487b7100000000000000000000000000000000000000000000000000000000600052601160045260246000fd5b600061282e82611c88565b91507fffffffffffffffffffffffffffffffffffffffffffffffffffffffffffffffff821415612861576128606127f4565b5b600182019050919050565b7f46756e6374696f6e206d7573742062652063616c6c6564207468726f7567682060008201527f64656c656761746563616c6c0000000000000000000000000000000000000000602082015250565b60006128c8602c836126d6565b91506128d38261286c565b604082019050919050565b600060208201905081810360008301526128f7816128bb565b9050919050565b7f46756e6374696f6e206d7573742062652063616c6c6564207468726f7567682060008201527f6163746976652070726f78790000000000000000000000000000000000000000602082015250565b600061295a602c836126d6565b9150612965826128fe565b604082019050919050565b600060208201905081810360008301526129898161294d565b9050919050565b61299981612221565b82525050565b60006040820190506129b46000830185612990565b6129c160208301846121f7565b9392505050565b7f555550535570677261646561626c653a206d757374206e6f742062652063616c60008201527f6c6564207468726f7567682064656c656761746563616c6c0000000000000000602082015250565b6000612a246038836126d6565b9150612a2f826129c8565b604082019050919050565b60006020820190508181036000830152612a5381612a17565b9050919050565b7f6f7065726174696f6e206e6f7420616c6c6f7765640000000000000000000000600082015250565b6000612a906015836126d6565b9150612a9b82612a5a565b602082019050919050565b60006020820190508181036000830152612abf81612a83565b9050919050565b600081519050612ad581611c92565b92915050565b600060208284031215612af157612af0611c20565b5b6000612aff84828501612ac6565b91505092915050565b7f496e697469616c697a61626c653a20636f6e747261637420697320616c72656160008201527f647920696e697469616c697a6564000000000000000000000000000000000000602082015250565b6000612b64602e836126d6565b9150612b6f82612b08565b604082019050919050565b60006020820190508181036000830152612b9381612b57565b9050919050565b6000819050919050565b600060ff82169050919050565b6000612bcc612bc7612bc284612b9a565b612490565b612ba4565b9050919050565b612bdc81612bb1565b82525050565b6000602082019050612bf76000830184612bd3565b92915050565b6000819050919050565b600077ffffffffffffffffffffffffffffffffffffffffffffffff82169050919050565b6000612c46612c41612c3c84612bfd565b612490565b612c07565b9050919050565b612c5681612c2b565b82525050565b6000604082019050612c716000830185612466565b612c7e6020830184612c4d565b9392505050565b7f6163636f756e743a206e6f74204f776e6572206f7220456e747279506f696e74600082015250565b6000612cbb6020836126d6565b9150612cc682612c85565b602082019050919050565b60006020820190508181036000830152612cea81612cae565b9050919050565b600081519050919050565b600081905092915050565b60005b83811015612d25578082015181840152602081019050612d0a565b83811115612d34576000848401525b50505050565b6000612d4582612cf1565b612d4f8185612cfc565b9350612d5f818560208601612d07565b80840191505092915050565b6000612d778284612d3a565b915081905092915050565b600081519050612d918161215c565b92915050565b600060208284031215612dad57612dac611c20565b5b6000612dbb84828501612d82565b91505092915050565b7f45524331393637557067726164653a206e657720696d706c656d656e7461746960008201527f6f6e206973206e6f742055555053000000000000000000000000000000000000602082015250565b6000612e20602e836126d6565b9150612e2b82612dc4565b604082019050919050565b60006020820190508181036000830152612e4f81612e13565b9050919050565b7f45524331393637557067726164653a20756e737570706f727465642070726f7860008201527f6961626c65555549440000000000000000000000000000000000000000000000602082015250565b6000612eb26029836126d6565b9150612ebd82612e56565b604082019050919050565b60006020820190508181036000830152612ee181612ea5565b9050919050565b7f6163636f756e743a206e6f742066726f6d20456e747279506f696e7400000000600082015250565b6000612f1e601c836126d6565b9150612f2982612ee8565b602082019050919050565b60006020820190508181036000830152612f4d81612f11565b9050919050565b50565b6000612f64600083612cfc565b9150612f6f82612f54565b600082019050919050565b6000612f8582612f57565b9150819050919050565b7f6f6e6c79206f776e657200000000000000000000000000000000000000000000600082015250565b6000612fc5600a836126d6565b9150612fd082612f8f565b602082019050919050565b60006020820190508181036000830152612ff481612fb8565b9050919050565b7f455243313936373a206e657720696d706c656d656e746174696f6e206973206e60008201527f6f74206120636f6e747261637400000000000000000000000000000000000000602082015250565b6000613057602d836126d6565b915061306282612ffb565b604082019050919050565b600060208201905081810360008301526130868161304a565b9050919050565b7f4e487b7100000000000000000000000000000000000000000000000000000000600052602160045260246000fd5b7f45434453413a20696e76616c6964207369676e61747572650000000000000000600082015250565b60006130f26018836126d6565b91506130fd826130bc565b602082019050919050565b60006020820190508181036000830152613121816130e5565b9050919050565b7f45434453413a20696e76616c6964207369676e6174757265206c656e67746800600082015250565b600061315e601f836126d6565b915061316982613128565b602082019050919050565b6000602082019050818103600083015261318d81613151565b9050919050565b7f45434453413a20696e76616c6964207369676e6174757265202773272076616c60008201527f7565000000000000000000000000000000000000000000000000000000000000602082015250565b60006131f06022836126d6565b91506131fb82613194565b604082019050919050565b6000602082019050818103600083015261321f816131e3565b9050919050565b61322f81612ba4565b82525050565b600060808201905061324a600083018761243c565b6132576020830186613226565b613264604083018561243c565b613271606083018461243c565b95945050505050565b7f416464726573733a2063616c6c20746f206e6f6e2d636f6e7472616374000000600082015250565b60006132b0601d836126d6565b91506132bb8261327a565b602082019050919050565b600060208201905081810360008301526132df816132a3565b9050919050565b600081519050919050565b60006132fc826132e6565b61330681856126d6565b9350613316818560208601612d07565b61331f816122a4565b840191505092915050565b6000602082019050818103600083015261334481846132f1565b90509291505056fe416464726573733a206c6f772d6c6576656c2064656c65676174652063616c6c206661696c6564a2646970667358221220d204fbd26fa2585fd70c57ac2bb311e18347647b8b41051ef802b89a8337bdd164736f6c634300080c0033",
  "immutableReferences": {
    "529": [
      {
        "length": 32,
        "start": 1879
      },
      {
        "length": 32,
        "start": 2022
      },
      {
        "length": 32,
        "start": 2568
      },
      {
        "length": 32,
        "start": 2711
      },
      {
        "length": 32,
        "start": 2887
      }
    ],
    "3830": [
      {
        "length": 32,
        "start": 3110
      },
      {
        "length": 32,
        "start": 5617
      }
    ]
  },
  "source": "// SPDX-License-Identifier: GPL-3.0\r\npragma solidity ^0.8.12;\r\n\r\n/* solhint-disable avoid-low-level-calls */\r\n/* solhint-disable no-inline-assembly */\r\n/* solhint-disable reason-string */\r\n\r\nimport \"@openzeppelin/contracts/utils/cryptography/ECDSA.sol\";\r\nimport \"@openzeppelin/contracts/proxy/utils/Initializable.sol\";\r\nimport \"@openzeppelin/contracts/proxy/utils/UUPSUpgradeable.sol\";\r\n\r\nimport \"./BaseAccount.sol\";\r\nimport \"./TokenCallbackHandler.sol\";\r\n\r\n/**\r\n  * minimal account.\r\n  *  this is sample minimal account.\r\n  *  has execute, eth handling methods\r\n  *  has a single signer that can send requests through the entryPoint.\r\n  */\r\ncontract SimpleAccount is BaseAccount, TokenCallbackHandler, UUPSUpgradeable, Initializable {\r\n    using ECDSA for bytes32;\r\n\r\n    address public owner;\r\n\r\n    IEntryPoint private immutable _entryPoint;\r\n\r\n    event SimpleAccountInitialized(IEntryPoint indexed entryPoint, address indexed owner);\r\n\r\n    modifier onlyOwner() {\r\n        _onlyOwner();\r\n        _;\r\n    }\r\n\r\n    /// @inheritdoc BaseAccount\r\n    function entryPoint() public view virtual override returns (IEntryPoint) {\r\n        return _entryPoint;\r\n    }\r\n\r\n\r\n    // solhint-disable-next-line no-empty-blocks\r\n    receive() external payable {}\r\n\r\n    constructor(IEntryPoint anEntryPoint) {\r\n        _entryPoint = anEntryPoint;\r\n        _disableInitializers();\r\n    }\r\n\r\n    function _onlyOwner() internal view {\r\n        //directly from EOA owner, or through the account itself (which gets redirected through execute())\r\n        require(msg.sender == owner || msg.sender == address(this), \"only owner\");\r\n    }\r\n\r\n    /**\r\n     * execute a transaction (called directly from owner, or by entryPoint)\r\n     */\r\n    function execute(address dest, uint256 value, bytes calldata func) external {\r\n        _requireFromEntryPointOrOwner();\r\n        require(isOperationAllowed(dest, value, func), \"operation not allowed\");\r\n        _call(dest, value, func);\r\n    }\r\n\r\n    function isOperationAllowed(address dest, uint256 value, bytes calldata func) public view returns (bool) {\r\n        // TODO: add the allow/deny logic\r\n        return true;\r\n    }\r\n\r\n    /**\r\n     * execute a sequence of transactions\r\n     */\r\n    function executeBatch(address[] calldata dest, bytes[] calldata func) external {\r\n        _requireFromEntryPointOrOwner();\r\n        require(dest.length == func.length, \"wrong array lengths\");\r\n        for (uint256 i = 0; i < dest.length; i++) {\r\n            isOperationAllowed(dest[i], 0, func[i]);\r\n            _call(dest[i], 0, func[i]);\r\n        }\r\n    }\r\n\r\n    /**\r\n     * @dev The _entryPoint member is immutable, to reduce gas consumption.  To upgrade EntryPoint,\r\n     * a new implementation of SimpleAccount must be deployed with the new EntryPoint address, then upgrading\r\n      * the implementation by calling `upgradeTo()`\r\n     */\r\n    function initialize(address anOwner) public virtual initializer {\r\n        _initialize(anOwner);\r\n    }\r\n\r\n    function _initialize(address anOwner) internal virtual {\r\n        owner = anOwner;\r\n        emit SimpleAccountInitialized(_entryPoint, owner);\r\n    }\r\n\r\n    // Require the function call went through EntryPoint or owner\r\n    function _requireFromEntryPointOrOwner() internal view {\r\n        require(msg.sender == address(entryPoint()) || msg.sender == owner, \"account: not Owner or EntryPoint\");\r\n    }\r\n\r\n    /// implement template method of BaseAccount\r\n    function _validateSignature(UserOperation calldata userOp, bytes32 userOpHash)\r\n    internal override virtual returns (uint256 validationData) {\r\n        bytes32 hash = userOpHash.toEthSignedMessageHash();\r\n        if (owner != hash.recover(userOp.signature))\r\n            return SIG_VALIDATION_FAILED;\r\n        return 0;\r\n    }\r\n\r\n    function _call(address target, uint256 value, bytes memory data) internal {\r\n        (bool success, bytes memory result) = target.call{value : value}(data);\r\n        if (!success) {\r\n            assembly {\r\n                revert(add(result, 32), mload(result))\r\n            }\r\n        }\r\n    }\r\n\r\n    /**\r\n     * check current account deposit in the entryPoint\r\n     */\r\n    function getDeposit() public view returns (uint256) {\r\n        return entryPoint().balanceOf(address(this));\r\n    }\r\n\r\n    /**\r\n     * deposit more funds for this account in the entryPoint\r\n     */\r\n    function addDeposit() public payable {\r\n        entryPoint().depositTo{value : msg.value}(address(this));\r\n    }\r\n\r\n    /**\r\n     * withdraw value from the account's deposit\r\n     * @param withdrawAddress target to send to\r\n     * @param amount to withdraw\r\n     */\r\n    function withdrawDepositTo(address payable withdrawAddress, uint256 amount) public onlyOwner {\r\n        entryPoint().withdrawTo(withdrawAddress, amount);\r\n    }\r\n\r\n    function _authorizeUpgrade(address newImplementation) internal view override {\r\n        (newImplementation);\r\n        _onlyOwner();\r\n    }\r\n}\r\n",
  "sourcePath": "C:\\Users\\hervi\\Documents\\Blockchain Projects\\ETHPrague2023\\Discovery-Wallet\\contracts\\simpleAccount.sol",
  "compiler": {
    "name": "solc",
    "version": "0.8.12+commit.f00d7308.Emscripten.clang"
  },
  "schemaVersion": "3.4.12",
  "updatedAt": "2023-06-10T14:14:13.268Z",
  "devdoc": {
    "kind": "dev",
    "methods": {
      "initialize(address)": {
        "details": "The _entryPoint member is immutable, to reduce gas consumption.  To upgrade EntryPoint, a new implementation of SimpleAccount must be deployed with the new EntryPoint address, then upgrading the implementation by calling `upgradeTo()`"
      },
      "proxiableUUID()": {
        "details": "Implementation of the ERC1822 {proxiableUUID} function. This returns the storage slot used by the implementation. It is used to validate the implementation's compatibility when performing an upgrade. IMPORTANT: A proxy pointing at a proxiable contract should not be considered proxiable itself, because this risks bricking a proxy that upgrades to it, by delegating to itself until out of gas. Thus it is critical that this function revert if invoked through a proxy. This is guaranteed by the `notDelegated` modifier."
      },
      "supportsInterface(bytes4)": {
        "details": "Returns true if this contract implements the interface defined by `interfaceId`. See the corresponding https://eips.ethereum.org/EIPS/eip-165#how-interfaces-are-identified[EIP section] to learn more about how these ids are created. This function call must use less than 30 000 gas."
      },
      "upgradeTo(address)": {
        "custom:oz-upgrades-unsafe-allow-reachable": "delegatecall",
        "details": "Upgrade the implementation of the proxy to `newImplementation`. Calls {_authorizeUpgrade}. Emits an {Upgraded} event."
      },
      "upgradeToAndCall(address,bytes)": {
        "custom:oz-upgrades-unsafe-allow-reachable": "delegatecall",
        "details": "Upgrade the implementation of the proxy to `newImplementation`, and subsequently execute the function call encoded in `data`. Calls {_authorizeUpgrade}. Emits an {Upgraded} event."
      },
      "withdrawDepositTo(address,uint256)": {
        "params": {
          "amount": "to withdraw",
          "withdrawAddress": "target to send to"
        }
      }
    },
    "version": 1
  },
  "userdoc": {
    "kind": "user",
    "methods": {
      "addDeposit()": {
        "notice": "deposit more funds for this account in the entryPoint"
      },
      "entryPoint()": {
        "notice": "return the entryPoint used by this account. subclass should return the current entryPoint used by this account."
      },
      "execute(address,uint256,bytes)": {
        "notice": "execute a transaction (called directly from owner, or by entryPoint)"
      },
      "executeBatch(address[],bytes[])": {
        "notice": "execute a sequence of transactions"
      },
      "getDeposit()": {
        "notice": "check current account deposit in the entryPoint"
      },
      "getNonce()": {
        "notice": "Return the account nonce. This method returns the next sequential nonce. For a nonce of a specific key, use `entrypoint.getNonce(account, key)`"
      },
      "validateUserOp((address,uint256,bytes,bytes,uint256,uint256,uint256,uint256,uint256,bytes,bytes),bytes32,uint256)": {
        "notice": "Validate user's signature and nonce. subclass doesn't need to override this method. Instead, it should override the specific internal validation methods."
      },
      "withdrawDepositTo(address,uint256)": {
        "notice": "withdraw value from the account's deposit"
      }
    },
    "notice": "minimal account.  this is sample minimal account.  has execute, eth handling methods  has a single signer that can send requests through the entryPoint.",
    "version": 1
  }
}