{
  "contractName": "TestContract",
  "abi": [
    {
      "inputs": [],
      "name": "value",
      "outputs": [
        {
          "internalType": "uint256",
          "name": "",
          "type": "uint256"
        }
      ],
      "stateMutability": "view",
      "type": "function"
    },
    {
      "inputs": [
        {
          "internalType": "uint256",
          "name": "_value",
          "type": "uint256"
        }
      ],
      "name": "setValue",
      "outputs": [],
      "stateMutability": "nonpayable",
      "type": "function"
    },
    {
      "inputs": [],
      "name": "getValue",
      "outputs": [
        {
          "internalType": "uint256",
          "name": "",
          "type": "uint256"
        }
      ],
      "stateMutability": "view",
      "type": "function"
    }
  ],
  "bytecode": "0x608060405234801561001057600080fd5b5061017f806100206000396000f3fe608060405234801561001057600080fd5b50600436106100415760003560e01c806320965255146100465780633fa4f245146100645780635524107714610082575b600080fd5b61004e61009e565b60405161005b91906100d0565b60405180910390f35b61006c6100a7565b60405161007991906100d0565b60405180910390f35b61009c6004803603810190610097919061011c565b6100ad565b005b60008054905090565b60005481565b8060008190555050565b6000819050919050565b6100ca816100b7565b82525050565b60006020820190506100e560008301846100c1565b92915050565b600080fd5b6100f9816100b7565b811461010457600080fd5b50565b600081359050610116816100f0565b92915050565b600060208284031215610132576101316100eb565b5b600061014084828501610107565b9150509291505056fea26469706673582212209a21c50e7edcd3daca4fa1cb1af721604a79481fc3a96bdb5faa7b7f18b78d0164736f6c634300080c0033",
  "immutableReferences": {},
  "source": "pragma solidity ^0.8.12;\r\n\r\ncontract TestContract {\r\n    uint256 public value;\r\n\r\n    function setValue(uint256 _value) public {\r\n        value = _value;\r\n    }\r\n\r\n    function getValue() public view returns (uint256) {\r\n        return value;\r\n    }\r\n}",
  "sourcePath": "C:\\Users\\hervi\\Documents\\Blockchain Projects\\ETHPrague2023\\Discovery-Wallet\\contracts\\test_contract.sol",
  "compiler": {
    "name": "solc",
    "version": "0.8.12+commit.f00d7308.Emscripten.clang"
  },
  "schemaVersion": "3.4.12",
  "updatedAt": "2023-06-10T15:23:30.746Z",
  "devdoc": {
    "kind": "dev",
    "methods": {},
    "version": 1
  },
  "userdoc": {
    "kind": "user",
    "methods": {},
    "version": 1
  }
}