{
  "contractName": "TokenCallbackHandler",
  "abi": [
    {
      "inputs": [
        {
          "internalType": "address",
          "name": "",
          "type": "address"
        },
        {
          "internalType": "address",
          "name": "",
          "type": "address"
        },
        {
          "internalType": "address",
          "name": "",
          "type": "address"
        },
        {
          "internalType": "uint256",
          "name": "",
          "type": "uint256"
        },
        {
          "internalType": "bytes",
          "name": "",
          "type": "bytes"
        },
        {
          "internalType": "bytes",
          "name": "",
          "type": "bytes"
        }
      ],
      "name": "tokensReceived",
      "outputs": [],
      "stateMutability": "pure",
      "type": "function"
    },
    {
      "inputs": [
        {
          "internalType": "address",
          "name": "",
          "type": "address"
        },
        {
          "internalType": "address",
          "name": "",
          "type": "address"
        },
        {
          "internalType": "uint256",
          "name": "",
          "type": "uint256"
        },
        {
          "internalType": "bytes",
          "name": "",
          "type": "bytes"
        }
      ],
      "name": "onERC721Received",
      "outputs": [
        {
          "internalType": "bytes4",
          "name": "",
          "type": "bytes4"
        }
      ],
      "stateMutability": "pure",
      "type": "function"
    },
    {
      "inputs": [
        {
          "internalType": "address",
          "name": "",
          "type": "address"
        },
        {
          "internalType": "address",
          "name": "",
          "type": "address"
        },
        {
          "internalType": "uint256",
          "name": "",
          "type": "uint256"
        },
        {
          "internalType": "uint256",
          "name": "",
          "type": "uint256"
        },
        {
          "internalType": "bytes",
          "name": "",
          "type": "bytes"
        }
      ],
      "name": "onERC1155Received",
      "outputs": [
        {
          "internalType": "bytes4",
          "name": "",
          "type": "bytes4"
        }
      ],
      "stateMutability": "pure",
      "type": "function"
    },
    {
      "inputs": [
        {
          "internalType": "address",
          "name": "",
          "type": "address"
        },
        {
          "internalType": "address",
          "name": "",
          "type": "address"
        },
        {
          "internalType": "uint256[]",
          "name": "",
          "type": "uint256[]"
        },
        {
          "internalType": "uint256[]",
          "name": "",
          "type": "uint256[]"
        },
        {
          "internalType": "bytes",
          "name": "",
          "type": "bytes"
        }
      ],
      "name": "onERC1155BatchReceived",
      "outputs": [
        {
          "internalType": "bytes4",
          "name": "",
          "type": "bytes4"
        }
      ],
      "stateMutability": "pure",
      "type": "function"
    },
    {
      "inputs": [
        {
          "internalType": "bytes4",
          "name": "interfaceId",
          "type": "bytes4"
        }
      ],
      "name": "supportsInterface",
      "outputs": [
        {
          "internalType": "bool",
          "name": "",
          "type": "bool"
        }
      ],
      "stateMutability": "view",
      "type": "function"
    }
  ],
  "bytecode": "0x608060405234801561001057600080fd5b506107ff806100206000396000f3fe608060405234801561001057600080fd5b50600436106100565760003560e01c806223de291461005b57806301ffc9a714610077578063150b7a02146100a7578063bc197c81146100d7578063f23a6e6114610107575b600080fd5b610075600480360381019061007091906103c1565b610137565b005b610091600480360381019061008c91906104e8565b610141565b60405161009e9190610530565b60405180910390f35b6100c160048036038101906100bc919061054b565b61027b565b6040516100ce91906105e2565b60405180910390f35b6100f160048036038101906100ec9190610653565b610290565b6040516100fe91906105e2565b60405180910390f35b610121600480360381019061011c919061072f565b6102a8565b60405161012e91906105e2565b60405180910390f35b5050505050505050565b60007f150b7a02000000000000000000000000000000000000000000000000000000007bffffffffffffffffffffffffffffffffffffffffffffffffffffffff1916827bffffffffffffffffffffffffffffffffffffffffffffffffffffffff1916148061020c57507f4e2312e0000000000000000000000000000000000000000000000000000000007bffffffffffffffffffffffffffffffffffffffffffffffffffffffff1916827bffffffffffffffffffffffffffffffffffffffffffffffffffffffff1916145b8061027457507f01ffc9a7000000000000000000000000000000000000000000000000000000007bffffffffffffffffffffffffffffffffffffffffffffffffffffffff1916827bffffffffffffffffffffffffffffffffffffffffffffffffffffffff1916145b9050919050565b600063150b7a0260e01b905095945050505050565b600063bc197c8160e01b905098975050505050505050565b600063f23a6e6160e01b90509695505050505050565b600080fd5b600080fd5b600073ffffffffffffffffffffffffffffffffffffffff82169050919050565b60006102f3826102c8565b9050919050565b610303816102e8565b811461030e57600080fd5b50565b600081359050610320816102fa565b92915050565b6000819050919050565b61033981610326565b811461034457600080fd5b50565b60008135905061035681610330565b92915050565b600080fd5b600080fd5b600080fd5b60008083601f8401126103815761038061035c565b5b8235905067ffffffffffffffff81111561039e5761039d610361565b5b6020830191508360018202830111156103ba576103b9610366565b5b9250929050565b60008060008060008060008060c0898b0312156103e1576103e06102be565b5b60006103ef8b828c01610311565b98505060206104008b828c01610311565b97505060406104118b828c01610311565b96505060606104228b828c01610347565b955050608089013567ffffffffffffffff811115610443576104426102c3565b5b61044f8b828c0161036b565b945094505060a089013567ffffffffffffffff811115610472576104716102c3565b5b61047e8b828c0161036b565b92509250509295985092959890939650565b60007fffffffff0000000000000000000000000000000000000000000000000000000082169050919050565b6104c581610490565b81146104d057600080fd5b50565b6000813590506104e2816104bc565b92915050565b6000602082840312156104fe576104fd6102be565b5b600061050c848285016104d3565b91505092915050565b60008115159050919050565b61052a81610515565b82525050565b60006020820190506105456000830184610521565b92915050565b600080600080600060808688031215610567576105666102be565b5b600061057588828901610311565b955050602061058688828901610311565b945050604061059788828901610347565b935050606086013567ffffffffffffffff8111156105b8576105b76102c3565b5b6105c48882890161036b565b92509250509295509295909350565b6105dc81610490565b82525050565b60006020820190506105f760008301846105d3565b92915050565b60008083601f8401126106135761061261035c565b5b8235905067ffffffffffffffff8111156106305761062f610361565b5b60208301915083602082028301111561064c5761064b610366565b5b9250929050565b60008060008060008060008060a0898b031215610673576106726102be565b5b60006106818b828c01610311565b98505060206106928b828c01610311565b975050604089013567ffffffffffffffff8111156106b3576106b26102c3565b5b6106bf8b828c016105fd565b9650965050606089013567ffffffffffffffff8111156106e2576106e16102c3565b5b6106ee8b828c016105fd565b9450945050608089013567ffffffffffffffff811115610711576107106102c3565b5b61071d8b828c0161036b565b92509250509295985092959890939650565b60008060008060008060a0878903121561074c5761074b6102be565b5b600061075a89828a01610311565b965050602061076b89828a01610311565b955050604061077c89828a01610347565b945050606061078d89828a01610347565b935050608087013567ffffffffffffffff8111156107ae576107ad6102c3565b5b6107ba89828a0161036b565b9250925050929550929550929556fea2646970667358221220cda24c3140f272543f3dbdb5f6bb086e6b0e619d4bad29f588c57cd1cfa42bf564736f6c634300080c0033",
  "immutableReferences": {},
  "source": "// SPDX-License-Identifier: GPL-3.0\r\npragma solidity ^0.8.12;\r\n\r\n/* solhint-disable no-empty-blocks */\r\n\r\nimport \"@openzeppelin/contracts/utils/introspection/IERC165.sol\";\r\nimport \"@openzeppelin/contracts/token/ERC777/IERC777Recipient.sol\";\r\nimport \"@openzeppelin/contracts/token/ERC721/IERC721Receiver.sol\";\r\nimport \"@openzeppelin/contracts/token/ERC1155/IERC1155Receiver.sol\";\r\n\r\n/**\r\n * Token callback handler.\r\n *   Handles supported tokens' callbacks, allowing account receiving these tokens.\r\n */\r\ncontract TokenCallbackHandler is IERC777Recipient, IERC721Receiver, IERC1155Receiver {\r\n    function tokensReceived(\r\n        address,\r\n        address,\r\n        address,\r\n        uint256,\r\n        bytes calldata,\r\n        bytes calldata\r\n    ) external pure override {\r\n    }\r\n\r\n    function onERC721Received(\r\n        address,\r\n        address,\r\n        uint256,\r\n        bytes calldata\r\n    ) external pure override returns (bytes4) {\r\n        return IERC721Receiver.onERC721Received.selector;\r\n    }\r\n\r\n    function onERC1155Received(\r\n        address,\r\n        address,\r\n        uint256,\r\n        uint256,\r\n        bytes calldata\r\n    ) external pure override returns (bytes4) {\r\n        return IERC1155Receiver.onERC1155Received.selector;\r\n    }\r\n\r\n    function onERC1155BatchReceived(\r\n        address,\r\n        address,\r\n        uint256[] calldata,\r\n        uint256[] calldata,\r\n        bytes calldata\r\n    ) external pure override returns (bytes4) {\r\n        return IERC1155Receiver.onERC1155BatchReceived.selector;\r\n    }\r\n\r\n    function supportsInterface(bytes4 interfaceId) external view virtual override returns (bool) {\r\n        return\r\n            interfaceId == type(IERC721Receiver).interfaceId ||\r\n            interfaceId == type(IERC1155Receiver).interfaceId ||\r\n            interfaceId == type(IERC165).interfaceId;\r\n    }\r\n}",
  "sourcePath": "C:\\Users\\hervi\\Documents\\Blockchain Projects\\ETHPrague2023\\Discovery-Wallet\\contracts\\Discovery_Account\\TokenCallbackHandler.sol",
  "compiler": {
    "name": "solc",
    "version": "0.8.12+commit.f00d7308.Emscripten.clang"
  },
  "schemaVersion": "3.4.12",
  "updatedAt": "2023-06-10T15:23:30.728Z",
  "devdoc": {
    "kind": "dev",
    "methods": {
      "supportsInterface(bytes4)": {
        "details": "Returns true if this contract implements the interface defined by `interfaceId`. See the corresponding https://eips.ethereum.org/EIPS/eip-165#how-interfaces-are-identified[EIP section] to learn more about how these ids are created. This function call must use less than 30 000 gas."
      }
    },
    "version": 1
  },
  "userdoc": {
    "kind": "user",
    "methods": {},
    "notice": "Token callback handler.   Handles supported tokens' callbacks, allowing account receiving these tokens.",
    "version": 1
  }
}